:04000000ADEF3FF031
:107F5A00066A0001E3EF3FF0FE0ED36E7F0E936ECA
:107F6A008A9E000E026E000E016ECFEC3FF01200E8
:107F7A0001C003F003460346C2500318C30B03189B
:107F8A00C26EC280C282C2B2FED7C3CF01F0C4CFD2
:107F9A0002F01200C198C19A01280008036E0F0E60
:107FAA000326C1500318F00B0318C16EC08EC08699
:107FBA00C088C08AC090C092C0941200000E056E9C
:107FCA00000E046EB1EC3FF0000E026E000E016E60
:107FDA00BDEC3FF001C004F002C005F005BE08D0B8
:107FEA000404020E0558D8A003D08A8E00EF00F0D0
:067FFA008A9E00EF00F07A
:020000040020DA
:08000000FFFFFFFFFFFFFFFF00
:020000040030CA
:0E0000002C0B1F1EFF8185FF0FC00FE00F406D
:00000001FF
