:02000000AC2D25
:0400060000000800EE
:10000A00103083120313FD00FD0B092800000800BD
:10001A00083083120313FC002330FD00FD0B132864
:06002A00FC0B1328080086
:1000300083120313BF1B1E2886131F2886173F1B1E
:100040002328061324280617BF1A282886122928D1
:1000500086163F1A2D2806122E280616301832282A
:10006000851733288513051703200513BF193A2870
:1000700086133B2886173F193F280613402806178A
:10008000BF1844288612452886163F1849280612AC
:100090004A28061630184E2885174F28851305174D
:1000A00003200513301C56280D2057280520080072
:1000B00083120313F8010830FC00700DF80D74086A
:1000C000F80203186528F8070310F00DFC0B5D28F3
:0200D000080026
:1000D2007B28803083120313BC008E28C030BC0002
:1000E2008E289430BC008E28D430BC008E288030FC
:1000F200BC008E28831203133C08013A03196A28B4
:100102003C08023A03196F283C08033A0319722883
:100112003C08043A0319752878283D03F0003C088E
:10012200F0077008BC0030147008BF0018203010AF
:0A0132003E08BF001820301408003A
:10013C008312031330103C08BF0018203014080041
:10014C00E329013083120313BC000330BD0041309E
:10015C00BE0069206330BC009E206930BC009E202C
:10016C006F30BC009E206E30BC009E206130BC0005
:10017C009E207230BC009E202030BC009E2073302C
:10018C00BC009E206130BC009E206930BC009E20CB
:10019C006430BC009E206130BC009E207330BC00DB
:1001AC009E200230BC000430BD004F30BE006920E0
:1001BC005530BC009E205430BC009E203130BC0019
:1001CC009E200330BC000430BD004F30BE006920BF
:1001DC005530BC009E205430BC009E203230BC00F8
:1001EC009E200430BC000430BD004F30BE0069209E
:1001FC005530BC009E205430BC009E203330BC00D7
:10020C009E20F5290130BC000330BD005430BE00E7
:10021C0069206530BC009E207330BC009E20743079
:10022C00BC009E206130BC009E207230BC009E2021
:10023C002030BC009E204430BC009E206930BC00A5
:10024C009E206730BC009E206930BC009E2074301C
:10025C00BC009E206130BC009E206C30BC009E20F7
:10026C000230BC000430BD004930BE0069204E3065
:10027C00BC009E203130BC009E200330BC000430FA
:10028C00BD004930BE0069204E30BC009E2032308B
:10029C00BC009E200430BC000430BD004930BE00C0
:1002AC0069204E30BC009E203330BC009E20F529C6
:1002BC000130BC000330BD005430BE0069206530F5
:1002CC00BC009E207330BC009E207430BC009E206D
:1002DC006130BC009E207230BC009E202030BC00DF
:1002EC009E204130BC009E206E30BC009E206130B0
:1002FC00BC009E206C30BC009E206F30BC009E2049
:10030C006730BC009E207330BC009E200230BC00C5
:10031C000430BD004130BE0069204E30BC009E2030
:10032C003130BC009E200330BC000430BD00413095
:10033C00BE0069204E30BC009E203230BC009E2096
:10034C000430BC000430BD004130BE0069204E308A
:10035C00BC009E203330BC009E20F5290130BC002F
:10036C000330BD005230BE0069206530BC009E20B9
:10037C007330BC009E207530BC009E206D30BC00DC
:10038C009E206F30BC009E202030BC009E2043304D
:10039C00BC009E206F30BC009E206E30BC009E20A6
:1003AC006630BC009E206930BC009E206730BC00CB
:1003BC009E207330BC009E20F52983120313340851
:1003CC00013A0319A7283408023A031908293408FA
:1003DC00033A03195E293408043A0319B42900308E
:1003EC002D06031DFB2903302C060319D22A0030DD
:1003FC002D06031D032A02302C06031D782A2C0817
:10040C00233EBB003B0884000008F0000A30F400D7
:10041C0058207008B5003B0884000008F0000A3032
:10042C00F40058207808F0007008B6002C08263E1E
:10043C00BB003B0884000008F0000A30F400582090
:10044C007008B7003B0884000008F0000A30F40084
:10045C0058207808F0007008B8002C08293EBB0022
:10046C003B0884000008F0000A30F40058207008A3
:10047C00B9003B0884000008F0000A30F400582052
:10048C007808F0007008BA000230BC000C30BD00D7
:10049C0030303507BE00692030303607BC009E2056
:1004AC005630BC009E200330BC000C30BD003030F8
:1004BC003707BE00692030303807BC009E2056300C
:1004CC00BC009E200430BC000C30BD00303039071D
:1004DC00BE00692030303A07BC009E205630BC006C
:1004EC009E20992A0230BC000C30BD002C08233E03
:1004FC00840030300007BE0069200330BC000C3093
:10050C00BD002C08263E840030300007BE00692058
:10051C000430BC000C30BD002C08293E8400303067
:10052C000007BE006920C12A0130BC000130BD00AB
:10053C003E30BE0069200130BC001430BD003C30A0
:10054C00BE006920D12A0230BC000130BD002A3027
:10055C00BE006920D12A0330BC000130BD002A3016
:10056C00BE006920D12A0430BC000130BD002A3005
:10057C00BE006920D12A2E08003A03199A2A2E08A7
:10058C00013A0319A92A2E08023A0319B12A2E0896
:10059C00033A0319B92AAD2B0230BC000130BD005F
:1005AC004F30BE0069205530BC009E205430BC003A
:1005BC009E203130BC009E200330BC000130BD00B9
:1005CC004F30BE0069205530BC009E205430BC001A
:1005DC009E203230BC009E200430BC000130BD0097
:1005EC004F30BE0069205530BC009E205430BC00FA
:1005FC009E203330BC009E200230BC000630BD0073
:10060C0030302307BE0069200330BC000630BD002B
:10061C0030302607BE0069200430BC000630BD0017
:10062C0030302907BE0069200230BC000830BD0004
:10063C004930BE0069204E30BC009E203130BC00D9
:10064C009E200330BC000830BD004930BE0069203C
:10065C004E30BC009E203230BC009E200430BC00CA
:10066C000830BD004930BE0069204E30BC009E20D1
:10067C003330BC009E200230BC000C30BD0030304A
:10068C002407BE0069200330BC000C30BD003030A4
:10069C002707BE0069200430BC000C30BD00303090
:1006AC002A07BE0069200230BC000E30BD0041306C
:1006BC00BE0069204E30BC009E203130BC009E2014
:1006CC000330BC000E30BD004130BE0069204E30FE
:1006DC00BC009E203230BC009E200430BC000E308A
:1006EC00BD004130BE0069204E30BC009E2033302E
:1006FC00BC009E200230BC001230BD0030303507EB
:10070C00BE00692030303607BC009E205630BC003D
:10071C009E200330BC001230BD0030303707BE00C5
:10072C00692030303807BC009E205630BC009E201B
:10073C000430BC001230BD0030303907BE006920D7
:10074C0030303A07BC009E205630BC009E2008007A
:10075C0083120313AF1DB62B0130BF001820AF114D
:02076C00080083
:0E076E008312031332088A003108820008004B
:0A077C00AE230430B400A6200800EC
:0A078600AE230130B400A6200800E5
:0A079000AE230330B400A6200800D9
:0A079A00AE230230B400A6200800D0
:1007A400831203137008F100F0010830FC00710893
:1007B400F40C0318E12BFC0BDA2BF10100340310C9
:1007C400E62BF40C0318F107F10CF00CFC0BE32BF3
:0207D40008001B
:1007D600831203130518F02B2F148518F32BAF146F
:1007E6000519F62B2F15051C452C2F1C452C2F10F3
:1007F6002E08031D022CAC0A0319AD0A372C003053
:100806002D06031D082C02302C06031D2B2C2E084A
:10081600F0000330F400D2232030F0072C087007D4
:1008260084001830000203182A2C2E08F00003302A
:10083600F400D2232030F0072C087007F10071086D
:100846008400000AF0007108840070088000372CCC
:100856002E08F0000330F400D2232030F0072C08D5
:1008660070078400013080008030F00080302D0653
:100876007002031D402C2C08033C0318442CAC01C9
:10088600AD01AF15851C952CAF1C952CAF102E080D
:10089600031D522C0130AC02031CAD03852C003025
:1008A6002D06031D582C02302C06031D7A2C2E080B
:1008B600F0000330F400D2232030F0072C08700734
:1008C600840000080319792C2E08F0000330F40088
:1008D600D2232030F0072C087007F100710884003D
:1008E6000003F0007108840070088000852C2E0833
:1008F600F0000330F400D2232030F0072C087007F4
:100906008400800180302D06F00080307002031DC7
:100916008E2C00302C020318942C0330AC000030CF
:10092600AD00AF15051DA92C2F1DA92C2F110030C8
:100936002D06031DA02C03302C060319A32CAE0A8A
:0E0946002E08033C0318A82CAE01AF150800C4
:1009540083120313B3010130BC000530BD004330E2
:10096400BE0069204C30BC009E205030BC009E204C
:100974002030BC009E205730BC009E205230BC006A
:100984009E202030BC009E204B30BC009E2069304D
:10099400BC009E207430BC009E207330BC009E209E
:1009A4000230BC000830BD007630BE006920313012
:1009B400BC009E202E30BC009E203030BC009E2007
:1009C4000330BC000530BD004930BE0069206E30E4
:1009D400BC009E206930BC009E206330BC009E2079
:1009E4006930BC009E206130BC009E206E30BC008B
:1009F4009E206430BC009E206F30BC009E202E30B0
:100A0400BC009E202E30BC009E202E30BC009E20B8
:100A14000430BC000130BD002330BE006920143016
:100A240033020318242D2330BC009E208230FC00A6
:100A3400DD30FD00FD0B1C2DFC0B1C2D0000000007
:080A4400B30A112D051608008C
:100A4C002F2DC323512DCD23512DC823512DBE2322
:100A5C00512D8312031300302D06031D372D00304A
:100A6C002C060319272D00302D06031D3F2D0130B8
:100A7C002C060319292D00302D06031D472D02309D
:100A8C002C0603192B2D00302D06031D4F2D033082
:080A9C002C0603192D2D0800A2
:100AA4008316031305138513061286120613861381
:100AB40083120513851386130613861206120D205E
:100AC4000D200D20861606160517032005130D208C
:100AD4000517032005130D200517032005130D200A
:100AE40006120517032005130D200517032005130F
:100AF400861286170517032005130D208613061684
:100B040005170320051306120517032005130D20EE
:100B140005170320051306160517032005130D20DA
:100B240006120517032005138617061786160616E0
:0C0B34000517032005130D2030140800E5
:100B4000B7238A110A128000840AB10A0319B20A73
:080B5000F003031DA02D0800B5
:100B580083120313A001A101A201A301A401A5010D
:100B6800A601A701A801A901AA01AB01AC01AD0129
:100B7800AE01AF0107309F002F30831685000B3080
:100B880086002F30831285000B30860052250C30EA
:100B9800BF0018200130BF001820AA240130BF0070
:0A0BA8001820EB232625D52DD82DAB
:02400E0030215F
:00000001FF
