:02000000052ACF
:10000800FF00030E8301BC000A08BD008A010C1D15
:100018001C28171C1C280C118F018E0183160C112B
:1000280004308312970083160C15831210142A28A3
:100038000C11101083160C110530831297008316CB
:100048000C1583121608AF001508B0003D088A0089
:0A0058003C0E8300FF0E7F0E09002E
:040062000000080092
:10006600103083120313FD00FD0B37280000080033
:10007600083083120313FC002330FD00FD0B4128DA
:06008600FC0B41280800FC
:10008C0083120313F801F9011030FC00710DF80D07
:10009C00F90D7408F8027508031C750FF9020318A2
:1000AC005E287408F80775080318750FF907031014
:0A00BC00F00DF10DFC0B4C280800BC
:1000C60083120313CC1B692886136A2886174C1BD8
:1000D6006E2806136F280617CC1A73288612742802
:1000E60086164C1A782806127928061633187D28A3
:1000F60086147E288610061531200611CC1985280F
:100106008613862886174C198A2806138B28061705
:10011600CC188F288612902886164C18942806121A
:10012600952806163318992886149A2886100615D7
:1001360031200611331CA1283B20A22833200800B9
:100146008312031333104708CC00632033140800CE
:0E015600831203132E088A002D088200080071
:1001640083120313CA0105304A020318C0284A083F
:100174004907840020308000CA0AB5284A08490784
:1001840084008001CA034A084907CB000A30F400FE
:10019400F5014708F0004808F10046207808F0000F
:1001A4007908F1003030F0074B08840070088000B3
:1001B4000A30F400F5014708F0004808F100462031
:1001C4007008C7007108C80000307106031DEC28D0
:1001D40000307006031DEF28F128CA03C528080063
:1001E40083120313C301C4013E08C5003F08C600BF
:1001F40080303F06F00080307002031D0329003078
:100204003E02031811290130C3000030C4003E0827
:10021400003CC5003F08031C013EC601C602450858
:10022400C7004608C8004008C900B2200630C10013
:100234000030C2004208003C031D22294108003C52
:1002440003183D2941084007F20001304102F00043
:100254000030031C013E4202F10070084007840094
:100264000008F00072088400700880000130C102A8
:10027400031CC2031C29400884002030800043086A
:10028400440403195B29C101C201410840078400E9
:100294000008203A031D5229C10A0319C20A47293A
:1002A4000130C102031CC2034108400784002D3001
:0402B40080000800BE
:1002B8006E29803083120313BE008129C030BE002E
:1002C80081299430BE008129D430BE008129803034
:1002D800BE008129831203133E08013A03195D29E0
:1002E8003E08023A031962293E08033A03196529B0
:1002F8003E08043A031968296B293F03F0003E08B9
:10030800F0077008BE007008CC0063203310C101EC
:10031800410840078400000803199A29410840074A
:1003280084000008C700A320C10A8C2933140800E0
:100338008312031306140D30FC00FB30FD00FD0B87
:0E034800A329FC0BA3290000000006100800EA
:1003560083160313061186100612861206138613D9
:1003660083120611861086130613861206123B2088
:100376003B203B20861606160615312006113B202B
:100386000615312006113B200615312006113B20AB
:1003960006120615312006113B20061531200611DE
:1003A600861286170615312006113B20861306167F
:1003B60006153120061106120615312006113B20BE
:1003C60006153120061106160615312006113B20AA
:1003D600061206153120061186170617861606160A
:0C03E6000615312006113B2033140800DE
:1003F200AB208A110A128000840AAD0A0319AE0AE0
:08040200F003031DF9290800B5
:10040A00443083120313A0006930A1007330A200A4
:10041A007430A3006130A4006E30A5006330A600DA
:10042A006930A7006130A800A9016330AA006D30C5
:10043A00AB00AC0107309F00C0308B0083160C1054
:10044A000C1505308312970090121012901010109C
:10045A00FF308316850009308600FF30831285003D
:10046A008601AB210C30CC0063200130CC00632024
:10047A000130BE000130BF002030C0005C210230D4
:10048A00BE000E30BF002A30C0005C218230FC0062
:10049A00DD30FD00FD0B4F2AFC0B4F2A0000000047
:1004AA009C218230FC00DD30FD00FD0B5A2AFC0B3A
:1004BA005A2A000000002F08F100F0013008F00766
:1004CA000318F10A7008B1007108B2003A30F4005A
:1004DA000030F50046207008B4007008BE00BF0165
:1004EA003530C000F2200230BE000830BF0035307F
:0804FA00C0005C21552A802A94
:02400E00692126
:00000001FF
