:04000000C2EF3FF01C
:107F84000001CAEF3FF0FA0ED36E000E936E12009A
:107F9400C5EC3FF08A80000E026EC80E016EDBEC69
:107FA4003FF08A90000E026EC80E016EDBEC3FF0CB
:107FB400F1D7000E046E000E036E19D0000E056E8C
:107FC400000E066E000E076E000E086E08500710B5
:107FD40006100BE17A0E055CD8B007D0010E052619
:107FE400000E062207220822F1D7034A042A015070
:0C7FF400035C02500458D8B01200E0D723
:020000040020DA
:08000000FFFFFFFFFFFFFFFF00
:020000040030CA
:0E000000010B1F1FFF8385FF0FC00FE00F4095
:00000001FF
