:02000000CD2908
:0C000600000000000000000000000800E6
:0E001200533083120313FD00FD0B0D28080070
:10002000243083120313FC00B530FD00FD0B1628AD
:0A003000FC0B162800000000080079
:10003A0083120313F801F9011030FC00710DF80D59
:10004A00F90D7408F8027508031C750FF9020318F4
:10005A0035287408F80775080318750FF90703108F
:0A006A00F00DF10DFC0B2328080037
:1000740083120313C21B4028861341288617421B90
:100084004528061346280617C21A4A2886124B2802
:100094008616421A4F280612502806162A18542883
:1000A400061555280611861503208611C2195C28E9
:1000B40086135D28861742196128061362280617DD
:1000C400C218662886126728861642186B280612FC
:1000D4006C2806162A18702806157128061186152C
:1000E400032086112A1C782810207928092008006A
:1000F400831203132A103D08C2003A202A14080070
:0E0104008312031333088A00320882000800B9
:1001120083120313C00105304002031897284008D8
:100122003F07840020308000C00A8C2840083F0727
:1001320084008001C00340083F07C1000A30F40078
:10014200F5013D08F0003E08F1001D207808F0009E
:100152007908F1003030F00741088400700880000F
:100162000A30F400F5013D08F0003E08F1001D20C0
:100172007008BD007108BE0000307106031DC3285F
:1001820000307006031DC628C828C0039C2808003A
:1001920083120313B901BA013408BB003508BC004D
:1001A20080303506F00080307002031DDA280030FE
:1001B20034020318E8280130B9000030BA003408CC
:1001C200003CBB003508031C013EBC01BC023B08DD
:1001D200BD003C08BE003608BF0089200630B700CB
:1001E2000030B8003808003C031DF9283708003CED
:1001F2000318142937083607F20001303702F000DD
:100202000030031C013E3802F100700836078400FA
:100212000008F00072088400700880000130B70204
:10022200031CB803F3283608840020308000390804
:100232003A0403193229B701B80137083607840096
:100242000008203A031D2929B70A0319B80A1E29F2
:100252000130B702031CB8033708360784002D307B
:040262008000080010
:100266004529803083120313B4005829C030B400E6
:1002760058299430B4005829D430B4005829803015
:10028600B4005829831203133408013A0319342998
:100296003408023A031939293408033A03193C2968
:1002A6003408043A03193F2942293503F00034087B
:1002B600F0077008B4007008C2003A202A10B7018F
:1002C60037083607840000080319712937083607EE
:1002D60084000008BD007A20B70A63292A140800A2
:1002E60082208A110A128000840AB20A0319B30A0C
:0802F600F003031D7329080049
:1002FE008316031386110611061286120613861331
:10030E00831286110611861306138612061210200A
:10031E001020102086160616861503208611102032
:10032E0086150320861110208615032086111020B5
:10033E0006128615032086111020861503208611BD
:10034E008612861786150320861110208613061630
:10035E00861503208611061286150320861110209D
:10036E008615032086110616861503208611102089
:10037E000612861503208611861706178616061690
:0C038E0086150320861110202A14080098
:10039A00503083120313A0007530A1006C30A20004
:1003AA007330A3006530A4003A30A5002030A600BF
:1003BA00A701073083169C000330831290008E0138
:1003CA008F01033083168600EF308700831286017F
:1003DA00EF3087007F210C30C2003A200130C20082
:1003EA003A200130B4000130B5002030B600332184
:1003FA000F08F100F0010E08F0070318F10A70085F
:10040A00A8007108A9007008B4007108B5002B3063
:10041A00B600C9200230B4000130B5002B30B60056
:10042A0033212908003C031D1C2A2808143C031800
:08043A001F2A0716F629202AEB
:02400E004A2F37
:00000001FF
