:02000000D72DFA
:10000800FF00030E8301CA000A08C9008A017008AC
:10001800A2000C1D23280C1131181B281608B30048
:10002800B2011508B2070318B30A311423281608B9
:10003800B500B4011508B4070318B50A3110220831
:10004800F00049088A004A0E8300FF0E7F0E09005F
:10005800103083120313FD00FD0B30280000080048
:10006800083083120313FC002330FD00FD0B3A28EF
:06007800FC0B3A28080011
:04007E000000080076
:1000820083120313E01B4728861348288617601B38
:100092004C2806134D280617E01A512886125228BA
:1000A2008616601A56280612572806163A185B2832
:1000B20086145C28861006153F200611E019632875
:1000C200861364288617601968280613692806179C
:1000D200E0186D2886126E2886166018722806129D
:1000E200732806163A18772886147828861006157B
:1000F2003F2006113A1C7F28342080282C2008003B
:100102007B15FB1F8B280130F300F201F101F00196
:08011200FA0DF20CFF300800A9
:08011A00FA1FF2130030080087
:1001220083120313FB01FA01F901F801A001730D17
:10013200F80D7408F8027508031C750FF9027608A9
:10014200031C760FFA027708031C770FFB020001EB
:10015200031C0130A002F30D0730FC00730DF80DF3
:10016200F90DFA0DFB0DA00D7408731CCA28F802D4
:100172007508031C750FF9027608031C760FFA0244
:100182007708031C770FFB020001031C0130A00259
:10019200DB28F80775080318750FF90776080318A6
:1001A200760FFA0777080318770FFB070001031889
:1001B2000130A007F30DFC0BAF28720DF80DF90DFD
:1001C200FA0DFB0DA00D7408731CF928F8027508CE
:1001D200031C750FF9027608031C760FFA027708E2
:1001E200031C770FFB020001031C0130A0020A2945
:1001F200F80775080318750FF90776080318760FC4
:10020200FA0777080318770FFB070001031801307C
:10021200A007F20D0730FC00720DF80DF90DFA0D72
:10022200FB0DA00D7408721C2829F8027508031C26
:10023200750FF9027608031C760FFA027708031C81
:10024200770FFB020001031C0130A0023929F807D5
:1002520075080318750FF90776080318760FFA0761
:1002620077080318770FFB07000103180130A00776
:10027200F20DFC0B0D29710DF80DF90DFA0DFB0DA8
:10028200A00D7408721C5729F8027508031C750F1B
:10029200F9027608031C760FFA027708031C770F1F
:1002A200FB020001031C0130A0026829F80775084F
:1002B2000318750FF90776080318760FFA077708FF
:1002C2000318770FFB07000103180130A007F10D97
:1002D2000730FC00710DF80DF90DFA0DFB0DA00DA4
:1002E2007408711C8629F8027508031C750FF9023F
:1002F2007608031C760FFA027708031C770FFB02BD
:100302000001031C0130A0029729F80775080318A1
:10031200750FF90776080318760FFA07770803189E
:10032200770FFB07000103180130A007F10DFC0B4A
:100332006B29700DF80DF90DFA0DFB0DA00D740867
:10034200711CB529F8027508031C750FF9027608AD
:10035200031C760FFA027708031C770FFB020001D9
:10036200031C0130A002C629F80775080318750F8F
:10037200F90776080318760FFA0777080318770F3C
:10038200FB07000103180130A007F00D0730FC0045
:10039200700DF80DF90DFA0DFB0DA00D7408701C0F
:1003A200E429F8027508031C750FF9027608031C8C
:1003B200760FFA027708031C770FFB020001031C79
:1003C2000130A002F529F80775080318750FF9071F
:1003D20076080318760FFA0777080318770FFB07DA
:1003E200000103180130A007F00DFC0BC929701899
:1003F200082A7408F80775080318750FF9077608B4
:100402000318760FFA0777080318770FFB0708001F
:0E041200F201F101F001F801F30100300800E1
:10042000831203133A105808E00041203A140800E0
:10043000A1017208031D2D2A7108F2007008F10055
:10044000F001A1157208031D2D2A7108F200F101B7
:10045000A1112116720803193B2A2108F302031D7A
:10046000031C3F2A0310F21B432AF00DF10DF20D7D
:10047000F30B332A3F2A0130FC000922462A0230BE
:0E048000FC008120462A0430FC008D2008007C
:0E048E008312031348088A0047088200080002
:10049C0083120313DD01DE0100305E02031D582AB6
:1004AC000A305D020318632A5D085C078400203063
:1004BC008000DD0A0319DE0A522A5D085C078400FD
:1004CC0080010130DD02031CDE035D085C07DF00E8
:1004DC000A30F400F501F601F7015808F00059084C
:1004EC00F1005A08F2005B08F30091207808F00044
:1004FC007908F1007A08F2007B08F30030307007BD
:10050C00F4005F088400740880000A30F400F501E0
:10051C00F601F7015808F0005908F1005A08F200EA
:10052C005B08F30091207008D8007108D90072089C
:10053C00DA007308DB000030F4007306031DB02AE8
:10054C0074087206031DB02A74087106031DB02AC4
:10055C007008003A031DB32AB82A0130DD02031CCF
:06056C00DE036B2A08000B
:10057200FB14FB1FC32AFF30F300F200F100F0006E
:08058200FA0DF20CFF30080035
:06058A00FB15FF30080024
:100590007B14FB1FD32AF201FA1FFF30F200F10097
:0A05A000F000FA0DF20CFF30080025
:1005AA008030831203134C06F00080307002031D62
:1005BA00E02A00304B020318EB2A4B08003CF000FB
:1005CA004C08031C013EF101F10208004B08F0003F
:0605DA004C08F1000800CE
:1005E000831203137408003A031D0B2B7508003A9D
:1005F000031D0B2B7608003A031D0B2B7708003ADE
:10060000031D0B2BFF30F000FF30F1007F30F200B4
:10061000FF30F300080083120313770803199A2BA5
:10062000730803199D2B720876068039FA00F217B9
:10063000F617A1017208F8007108FC007008FD00AF
:100640007408FD027508031C750FFC027608031C74
:10065000760FF802F801FC01FD01031C362B031094
:10066000F20CF10CF00CF80C0130A1007708F30249
:10067000031C402B7E302107F3070318A02B452BCA
:100680007E302107F307031CA32B1830FA07FD0D5A
:10069000FC0DF80DF00DF10DF20DA10D7408F00236
:1006A0007508031C750FF1027608031C760FF20221
:1006B000760DA104211C5E2B7D14692B7408F007B4
:1006C00075080318750FF10776080318760AF20704
:1006D0007D10FA031F307A05031D472B7B1B7D1C01
:1006E000902B0310F00DF10DF20DA10D7408F00226
:1006F0007508031C750FF1027608031C760FF202D1
:10070000760D21040139FD070318FC0A0319F80AC4
:10071000031D902BF80CFC0CFD0CF30A0319A02B05
:10072000FA1FF8137808F2007C08F1007D08F00049
:100730000030A52B0130C522A52B02300922A52BA4
:0E0740000430B922A52B0830812000000800EB
:10074E00831203137008F8007108F000F101F20132
:10075E00F301FB01FC019630F300FA017008F10081
:0C076E007808F000F801F20118220800E1
:10077A0083120313FB01FC01F80173080319362CD9
:10078A00F2179E30F302F31BCD2B0319CD2B262C27
:10079A00F309F30A08307302031CFB2BF300F80D6C
:1007AA007008F8007108F0007208F100F2010830D0
:1007BA007302031CFB2BF300F80D7008F800710894
:1007CA00F000F10108307302031CFB2BF300F80D53
:1007DA007008F800F00108307302031CFB2BF300C9
:1007EA00F80DF8017308031D0310052C730803198B
:1007FA00052C0310F20CF10CF00CF80CF30BFE2B89
:10080A007B1B781C132C031C132CF80A0319F00AFF
:10081A000319F10A0319F20AF21B332CFA1F362CB8
:10082A00F209F109F009F809F80A0319F00A03199B
:10083A00F10A0319F20A362CF201F101F001F8016A
:10084A00362C7B14FB1F392CF201FA1F392CF200CB
:10085A00F100F000F800FA0DF20C392C0130FC001E
:10086A003B2C0030FC003B2CFF30FC00FC08031939
:10087A003F2CC8227208F3007108F2007008F100D8
:06088A007808F0000800F0
:1008900083120313D201D3014B08D4004C08D500B6
:1008A0004D08D6004E08D70080304E06F00080304C
:1008B0007002031D652C00304D02031D652C0030B5
:1008C0004C02031D652C00304B0203188D2C0130A7
:1008D000D2000030D300F401F501F601F7014B0816
:1008E000F0004C08F1004D08F2004E08F3007408C7
:1008F000D4007508D5007608D6007708D7007008B0
:10090000D4027108031C710FD5027208031C720F08
:10091000D6027308031C730FD7025408D800550879
:10092000D9005608DA005708DB004F08DC004E22D9
:100930000B30D0000030D1005108003C031DA22C28
:100940005008003C0318BD2C50084F07F20001303E
:100950005002F0000030031C013E5102F10070080B
:100960004F0784000008F0007208840070088000BF
:100970000130D002031CD1039C2C4F08840020308E
:100980008000520853040319DB2CD001D101500818
:100990004F0784000008203A031DD22CD00A031907
:1009A000D10AC72C0130D002031CD10350084F07D5
:0809B00084002D3080000800D6
:1009B8008316031306118610061286120613861371
:1009C8008312061186108613061386120612342027
:1009D800342034208616061606153F2006113420CA
:1009E80006153F200611342006153F200611342035
:1009F800061206153F200611342006153F20061161
:100A08008612861706153F2006113420861306160F
:100A180006153F200611061206153F200611342040
:100A280006153F200611061606153F20061134202C
:100A3800061206153F200611861706178616061693
:0C0A480006153F20061134203A14080067
:100A54003C2D803083120313CB004F2DC030CB00CC
:100A64004F2D9430CB004F2DD430CB004F2D803000
:100A7400CB004F2D831203134B08013A03192B2D7E
:100A84004B08023A0319302D4B08033A0319332D4E
:100A94004B08043A0319362D392D4C03F0004B084A
:100AA400F0077008CB007008E00041203A10CE0136
:100AB4004E084D07840000080319682D4E084D07A1
:100AC40084000008D8001022CE0A5A2D3A140800D7
:100AD40083120313FB017308031D77080319C12D47
:100AE40072087606FA007708F3077E30031C7E2D21
:100AF400F3020318C42D812DF302031CC72D7208C1
:100B0400F8007108FC007008FD00F817F6170310D0
:100B1400F201F101F0011830A1007D1C9B2D740835
:100B2400F00775080318750FF10776080318760F98
:100B3400F207F20CF10CF00CF80CFC0CFD0C031099
:100B4400A10B8F2DF21BAB2DF80DF00DF10DF20D55
:100B5400F3037B1B701CBD2DF81FBD2DF00A031978
:100B6400F10A0319F20A031DBD2DF20CF10CF00C6D
:100B7400F30A0319C42DFA1FF2130030C92D0130F2
:100B84000922C92D0230B922C92D04308120000068
:020B9400080057
:100B960047228A110A128000840AC70A0319C80A62
:080BA600F003031DCB2D080034
:100BAE00463083120313A3007230A4006530A500F3
:100BBE007130A6007530A7006530A8006E30A90010
:100BCE006330AA006930AB006130AC00AD01483033
:100BDE00AE007A30AF00B001B10107309F00013096
:100BEE009000073097008B170B1783160C15FF30EC
:100BFE00850009308600FF30831285008601DC24D3
:100C0E000C30E00041200130E00041200130CB00EB
:100C1E000130CC002330CD002A250230CB000E301F
:100C2E00CC002E30CD002A258230FC00DD30FD00B8
:100C3E00FD0B1F2EFC0B1F2E00000000320834028D
:100C4E00CB003308031C013E3502CC00D5227008C0
:100C5E00B4007108B5000430F2007008F400710899
:100C6E00F50072080319402EF50CF40CF513FF3E37
:100C7E00392E7408B4007508B5007408F0007508B4
:100C8E00F100A723BD30F4003730F5000630F60032
:100C9E006B30F7006A257008F4007108F5007208D1
:100CAE00F6007308F7000030F0000030F10000305D
:100CBE00F2007F30F300F022BD237008B6007108F9
:100CCE00B7007208B8007308B9007008CB0071083D
:100CDE00CC007208CD007308CE003B30CF00482404
:100CEE000230CB000230CC003B30CD002A258230C2
:100CFE00FC00DD30FD00FD0B822EFC0B822E000071
:060D0E000000252E892ED5
:02400E00692126
:00000001FF
