:020000003628A0
:10000800FF00030E8301A3000A08A4008A010C1C48
:100018001C280C1018308E00FC308F000712A00A24
:100028002008323A031D1C28A00107162030870635
:0E00380024088A00230E8300FF0E7F0E0900AD
:0E0046008312031322088A002108820008009A
:1000540023208A110A128000840AA10A0319A20A21
:08006400F003031D2A28080027
:10006C0083120313A001073083169C0031308312D6
:10007C00900018308E00FC308F008B170B178316F6
:0E008C000C14CF3087008312071287124C2805
:02400E004A2F37
:00000001FF
