:020000040000FA
:100000008A110A1208280000000000000000000009
:10001000283084005830A0008001840AA00B0C28EE
:10002000403095009C30960000308E0000308F00EC
:10003000013090000B309700831686309F008312AA
:10004000003085008316FF30850083120030860063
:100050008316FB3086008312003087008316FF3042
:1000600087008312003088008316FF3088008312D7
:100070000030890083160730890083120C1D3E284A
:100080000C116400A914A9182915A91C2911861A94
:100090004A28291129190615291D06118A013E2809
:02400E00723FFF
:00000001FF
