:0400000093EF10F07A
:1000080000C015F0F2A207D0F292010E2C26000EC5
:100018002D222E222F22F2A416D0F294B00ED66EE4
:100028003C0ED76E472A4750140A0DE1476A462A04
:10003800010E2826000E29222A222B224650030AC6
:0C00480002E1466A627215C000F011006F
:040054000000120096
:10005800080E0C6E230E0D6E0D2EFED70C2EFCD73F
:02006800120084
:0C006A00100E0D6E0D2EFED700001200CF
:100076000B840BAE46EF00F0010E036E026A016AB6
:0A008600006A0A360232FF0E120073
:080090000AAE029E000E1200F0
:100098000B820BAE56EF00F0036802680168006837
:0800A8000A360232FF0E1200BD
:0E00B000026A016A006A086A036A000E120002
:1000BE000134083609360450085E0550D8A0053CB8
:1000CE00095E003601360F0E0C6E01340836093605
:1000DE00045000A006D0085E0550D8A0053C095E6D
:1000EE0005D008260550D8B0053C09260036013645
:1000FE000C2EEBD700B006D0045008260550D8B011
:08010E00053C09260000120067
:100116000B6A0A6A096A086A0E6A033408360450CA
:10012600085E0550D8A0053C095E0650D8A0063CDE
:100136000A5E0750D8A0073C0B5EE86AD8A0010EFD
:100146000E5E0336070E0C6E0334083609360A3681
:100156000B360E36045003A012D0085E0550D8A008
:10016600053C095E0650D8A0063C0A5E0750D8A09A
:10017600073C0B5EE86AD8A0010E0E5E11D0082679
:100186000550D8B0053C09260650D8B0063C0A26CC
:100196000750D8B0073C0B26E86AD8B0010E0E26E9
:1001A60003360C2ED1D70234083609360A360B36FA
:1001B6000E36045003A012D0085E0550D8A0053CA8
:1001C600095E0650D8A0063C0A5E0750D8A0073C38
:1001D6000B5EE86AD8A0010E0E5E11D00826055007
:1001E600D8B0053C09260650D8B0063C0A2607506A
:1001F600D8B0073C0B26E86AD8B0010E0E260236A8
:10020600070E0C6E0234083609360A360B360E36E1
:10021600045002A012D0085E0550D8A0053C095E25
:100226000650D8A0063C0A5E0750D8A0073C0B5ED5
:10023600E86AD8A0010E0E5E11D008260550D8B087
:10024600053C09260650D8B0063C0A260750D8B009
:10025600073C0B26E86AD8B0010E0E2602360C2E95
:10026600D1D70134083609360A360B360E36045015
:1002760002A012D0085E0550D8A0053C095E0650C3
:10028600D8A0063C0A5E0750D8A0073C0B5EE86A79
:10029600D8A0010E0E5E11D008260550D8B0053C38
:1002A60009260650D8B0063C0A260750D8B0073CA7
:1002B6000B26E86AD8B0010E0E260136070E0C6E24
:1002C6000134083609360A360B360E36045001A0BC
:1002D60012D0085E0550D8A0053C095E0650D8A08D
:1002E600063C0A5E0750D8A0073C0B5EE86AD8A019
:1002F600010E0E5E11D008260550D8B0053C092621
:100306000650D8B0063C0A260750D8B0073C0B2644
:10031600E86AD8B0010E0E2601360C2ED1D700346D
:10032600083609360A360B360E36045001A012D0AE
:10033600085E0550D8A0053C095E0650D8A0063CCC
:100346000A5E0750D8A0073C0B5EE86AD8A0010EEB
:100356000E5E11D008260550D8B0053C0926065079
:10036600D8B0063C0A260750D8B0073C0B26E86AE8
:10037600D8B0010E0E260036070E0C6E0034083675
:1003860009360A360B360E36045000A012D0085E27
:100396000550D8A0053C095E0650D8A0063C0A5E6A
:1003A6000750D8A0073C0B5EE86AD8A0010E0E5E87
:1003B60011D008260550D8B0053C09260650D8B0FD
:1003C600063C0A260750D8B0073C0B26E86AD8B088
:1003D600010E0E2600360C2ED1D700B00ED00450DA
:1003E60008260550D8B0053C09260650D8B0063C6C
:0C03F6000A260750D8B0073C0B26120066
:100402000001A1BF02D0839E01D0838EA1BD02D084
:10041200839C01D0838CA1BB02D0839A01D0838AB2
:10042200A1B902D0839801D0838862B602D08384B6
:1004320001D0839483860DDE8396A1B702D0839E7A
:1004420001D0838EA1B502D0839C01D0838CA1B34D
:1004520002D0839A01D0838AA1B102D0839801D0BD
:10046200838862B602D0838401D083948386F1DDCF
:0E047200839662A602D0EFDD01D0F6DD120007
:0A048000070E0D6E0D2EFED71200C0
:10048A000CB087EF02F00CA22DEF03F00E6A000EFB
:10049A0002649EEF02F0F00E0214D8A469EF02F093
:1004AA00023A01380F0B02260138F00B016E0038B0
:1004BA000F0B01260038F00B006E08380F0B0026D0
:1004CA000838F00B086E0E84D89002BE82EF02F054
:1004DA0008360036013602360E2A02BE82EF02F0D4
:1004EA0008360036013602360E2A02BE82EF02F0C4
:1004FA0008360036013602360E2A0E50036423EF00
:10050A0003F0035E0BBC08AE28EF03F0D880800E20
:10051A0008640030000E002201220222D8A028EF2F
:10052A0003F0023201320032034A2DEF03F028EFC2
:10053A0003F001C002F000C001F008C000F0086A30
:10054A00000E0E860264D5EF02F0F00E0214D8A453
:10055A00BDEF02F0023A01380F0B02260138F00B08
:10056A00016E00380F0B01260038F00B006E0E8466
:10057A00D89002BE82EF02F00036013602360E2A09
:10058A0002BE82EF02F00036013602360E2A02BEA1
:10059A0082EF02F00036013602360E2A82EF02F0AE
:1005AA0001C002F000C001F0006A000E0E960E882B
:1005BA00026402EF03F0F00E0214D8A4EDEF02F089
:1005CA00023A01380F0B02260138F00B016E0E8435
:1005DA00D89002BE82EF02F0013602360E2A02BE1F
:1005EA0082EF02F0013602360E2A02BE82EF02F0D4
:1005FA00013602360E2A82EF02F001C002F0016AC9
:10060A00000E0E86026432EF03F0F00E0214D8A434
:10061A0011EF03F0023A0E84D89002BE82EF02F084
:10062A0002360E2A02BE82EF02F002360E2A02BEFD
:10063A0082EF02F002360E2A82EF02F0010E0C6EF1
:10064A0015DD35EF03F0020E0C6E1DDD35EF03F0FC
:10065A00040E0C6E1CDD35EF03F0080E0C6E23DD64
:02066A0012007C
:10066C00086A096A000E07620364BBEF03F00250CC
:10067C0006180A6E075003267E0ED8A04CEF03F026
:10068C00035ED8B0BFEF03F050EF03F0035ED8A0C9
:10069C00C3EF03F0028E068E02C00EF001C00BF009
:1006AC0000C00DF000500402F4CF0CF00150050214
:1006BC00F4CF00F0F3CF08F00402F3500C26F45002
:1006CC000822000E00220D500502F3500C26F450A7
:1006DC000822000E002202500402F3500826F450A7
:1006EC00002202500502016A000E0122F35000267E
:1006FC00F45001220D500602F3500826F45000224B
:10070C00026A000E012202220B500602F350002650
:10071C00F4500122000E02220E500602F350012664
:10072C00F450022202BEA3EF03F008360036013665
:10073C0002360306D8B4C3EF03F0B6EF03F0D8804B
:10074C00800E08640030000E002201220222D8A084
:10075C00B6EF03F0023201320032034ABFEF03F06E
:10076C000AAE029E000EC5EF03F0010E9BDCC5EF36
:10077C0003F0020E8BDCC5EF03F0040E76DC1200E6
:10078C00086A080E0C6E003408360450085ED8B0A7
:0E079C0002D00826D89000360C2EF5D7120099
:1007AA000C6A0E6A0250D8A4EEEF03F001C002F000
:1007BA0000C001F0006A0E860250D8A4EEEF03F0E2
:1007CA0001C002F0016A0E960E880250D8B400EFFA
:1007DA0004F00E50035ED8A4D8A005EF04F0D89018
:1007EA0002BE0AEF04F0003601360236032EF5EF98
:1007FA0003F005EF04F0010E0C6E55DC0DEF04F06A
:10080A00020E0C6E33DC0DEF04F0040E0C6E3BDCB2
:02081A001200CA
:10081C000A6A0350D8A40A800750D8A40A820A5046
:10082C00D8B471EF04F0030AD8B42AEF04F00AB07C
:10083C0025EF04F006AE6FEF04F06DEF04F002AE9E
:10084C006DEF04F06FEF04F00250800B0A6E029E05
:10085C000650800B069E0A18D8B43BEF04F00A50E1
:10086C00D8B46DEF04F06FEF04F00750035CD8B40C
:10087C0045EF04F0D8A061EF04F067EF04F00650E8
:10088C00025CD8B44FEF04F0D8A061EF04F067EF2E
:10089C0004F00550015CD8B459EF04F0D8A061EF16
:1008AC0004F067EF04F00450005CD8B471EF04F06E
:1008BC00D8B067EF04F00A52D8B46FEF04F06DEFC4
:1008CC0004F00A52D8B46DEF04F06FEF04F0D88046
:0E08DC001200D8901200D880D88412001200AA
:1008EA00C26A070EC012C08E97C000F00036009090
:1008FA00003600900050C212C280BDDDC282C2A280
:10090A0001D0FDD7C4CF01F0006AC3500012000E17
:06091A000112C290120060
:100920000450000A08E10550000A05E1FF0E006EC0
:100930007F0E016E12000D6A096A086A01500010EC
:10094000D8B4000C015005180A6E0ABE0D1E0B6AC1
:1009500005AE05D0041E051E042AD8B4052A01AE32
:1009600005D0001E011E002AD8B4012A015005102E
:100970000A6E0ABE10D05FEC00F00BB020D00DAEB6
:10098000000C001E011E002AD8B4012A081E091EF0
:10099000082AD8B4092A000C05AE0DD001BE07D034
:1009A0000150096E0050086E016A006AE8D7016ABA
:1009B000006A002A000C011E001E0B2ADDD7082A3F
:1009C000D8B4092A0450085CD8A4D9D70550095CCA
:1009D000D8A4D5D7096A086A002AD8B4012A01AE7A
:0809E000CED70000FF0C12004D
:1009E80097C004F098C005F004C002F005C003F0F9
:1009F800044A052A99C000F09AC001F00001994BF9
:100A08009A2B00C0E9FF01C0EAFF02C0E1FF03C062
:100A1800E2FFEECFE6FF02C0E9FF03C0EAFFEE52B5
:0E0A280001E0E2D797C000F098C001F0120084
:100A360000019D6B9E6B000E9E5D02E10A0E9D5DA0
:100A46000BE29D519B25E16E9E519C21E26E200E8C
:100A5600E66E9D4B9E2BEFD79D519B25E16E9E51D9
:100A66009C21E26EE66A010E9D5F000E9E5B9D5123
:100A76009B259F6F9E519C21A06F0A0E046E000E4F
:100A8600056E066E076E97C000F098C001F099C01B
:100A960002F09AC003F08BEC00F008C000F009C029
:100AA60001F00AC002F00BC003F0300E00269FC012
:100AB600E1FFA0C0E2FF00C0E6FF0A0E046E000ED2
:100AC600056E066E076E97C000F098C001F099C0DB
:100AD60002F09AC003F08BEC00F000C097F001C062
:100AE60098F002C099F003C09AF0000E046E031845
:100AF60008E10450021805E10450011802E1005013
:100B0600000A01E105D0010E9D5F000E9E5BAFD786
:020B16001200CB
:100B180010D0800E0001976F1AD0C00E976F17D0B3
:100B2800940E976F14D0D40E976F11D0800E976FD4
:100B38000ED000019751010AECE09751020AEDE04E
:100B48009751030AEDE09751040AEDE0EFD79805B5
:100B5800006E9751002600C097F0628600C0A1F091
:0E0B68004CDC629699C0A1F048DC6286120057
:100B7600025006180E6E086A096A0B6A035007646B
:100B8600AEEF06F006500A6E068E028E03500B6E0E
:100B96000750036E000E0B64FEEF05F00B50075E68
:100BA600D8B49FEF06F0070E07646DEF06F0075EF8
:100BB60000C008F001C000F002C001F0026A074E52
:100BC6009FEF06F0076442EF06F0075E00C008F0EC
:100BD60001C000F0016A074E9FEF06F0076420EFA0
:100BE60006F0075E00C008F0006A074E9FEF06F0A9
:100BF600076407EF06F00AC002F005C001F004C062
:100C060000F0086ACBEF07F0030E076412EF06F058
:100C1600075E08380F0B086E074E9FEF06F0D89058
:100C26000832074E9FEF06F0D8900832074E9FEF26
:100C360006F0D89008329FEF06F0030E076431EFF6
:100C460006F0075E08380F0B086E0038F00B082612
:100C560000380F0B006E074E9FEF06F0D89000325B
:100C66000832074E9FEF06F0D89000320832074E42
:100C76009FEF06F0D890003208329FEF06F0030E81
:100C8600076459EF06F0075E08380F0B086E003848
:100C9600F00B082600380F0B006E0138F00B00260B
:100CA60001380F0B016E074E9FEF06F0D890013208
:100CB60000320832074E9FEF06F0D890013200321C
:100CC6000832074E9FEF06F0D89001320032083204
:100CD6009FEF06F0030E07648AEF06F0075E0838FA
:100CE6000F0B086E0038F00B082600380F0B006E4D
:100CF6000138F00B002601380F0B016E0238F00B9D
:100D0600012602380F0B026E074E9FEF06F0D890B1
:100D16000232013200320832074E9FEF06F0D890B9
:100D26000232013200320832074E9FEF06F0D890A9
:100D36000232013200320832096A000E0EAE93EF1B
:100D460007F0081E001E011E021E082A00220122AC
:100D5600022293EF07F00750D8A4B4EF06F0CBEFCA
:100D660007F0096A02C00AF0028E068E0750035C7D
:100D7600076ED8B486EF07F0070E076454EF07F046
:100D8600075E0450096E0550046E0650056E066A2D
:100D9600074E86EF07F0070E076429EF07F0075E98
:100DA6000450096E0550046E056A074E86EF07F07B
:100DB600070E076407EF07F0075E0450096E046A22
:100DC600074E86EF07F0070E0764EEEF06F00AC03F
:100DD60002F0CBEF07F0030E0764F9EF06F0075EAB
:100DE60009380F0B096E074E86EF07F0D8900932C7
:100DF600074E86EF07F0D8900932074E86EF07F0C8
:100E0600D890093286EF07F0030E076418EF07F053
:100E1600075E09380F0B096E0438F00B09260438F3
:100E26000F0B046E074E86EF07F0D8900432093296
:100E3600074E86EF07F0D89004320932074E86EF48
:100E460007F0D8900432093286EF07F0030E0764E4
:100E560040EF07F0075E09380F0B096E0438F00BF8
:100E6600092604380F0B046E0538F00B04260538E6
:100E76000F0B056E074E86EF07F0D8900532043249
:100E86000932074E86EF07F0D89005320432093250
:100E9600074E86EF07F0D89005320432093286EF06
:100EA60007F0030E076471EF07F0075E09380F0BB2
:100EB600096E0438F00B092604380F0B046E05384A
:100EC600F00B042605380F0B056E0638F00B0526C9
:100ED60006380F0B066E074E86EF07F0D8900632DF
:100EE600053204320932074E86EF07F0D8900632F3
:100EF600053204320932074E86EF07F0D8900632E3
:100F0600053204320932086A000E0EAE93EF07F07E
:100F1600091E041E051E061E092A04220522062293
:100F260009500826045000220550012206500222CC
:100F36000EBEAAEF07F0D8A0B9EF07F002320132D1
:100F460000320832033EB9EF07F0C5EF07F0D8B01C
:100F5600BFEF07F0000E081E001E011E021E082A23
:100F66000022012202220A7EBFEF07F0010E0C6E5C
:100F760045EC02F0CDEF07F0020E0C6E45EC02F0E8
:100F8600CDEF07F0040E0C6E4CEC00F0CDEF07F041
:060F9600000E0C6E1200BB
:0E0F9C00629697C0A1F001EC02F0628612008E
:080FAA000B6A0B86FF0E12001A
:100FB20000018A6B8B6B896B640E895D13E262B2EE
:100FC20008D0976B91DC005000018A2701508B23D7
:100FD20007D0976B89DC005000018A2701508B23D0
:100FE200892BEAD7640E046E000E056E8AC000F0EB
:080FF2008BC001F094DC120039
:100FFA0000C008F00150006E016A026A036A0B6AB7
:10100A000C6A016A026A036A960E036E0A6A00AEE5
:10101A0015EF08F0081E001E082AD8B4002A0A8E06
:10102A0000C001F008C000F0086A026AD5EC03F0BB
:02103A001200A2
:06103C00067E9BDD1200A0
:101042000450000A12E10550000A0FE10650000A9E
:101052000CE10750000A09E1FF0E006EFF0E016E5F
:101062007F0E026EFF0E036E1200086A096A0750B5
:10107200D8B4CCEF08F00350D8B4D0EF08F0025047
:1010820006180A6E028E068E0E6A02C008F001C0B1
:101092000CF000C00DF004500D5E0550D8A0053CC8
:1010A2000C5E0650D8A0063C085E086A0C6A0D6AFF
:1010B200D8A063EF08F0D890023201320032083231
:1010C200010E0E6E0750035ED8A070EF08F07E0E80
:1010D2000E240326D8B0D5EF08F076EF08F07E0E86
:1010E2000E240326D8A0DAEF08F0180E0B6E0D3688
:1010F2000C3608360036013602360E360450005ED3
:101102000550D8A0053C015E0650D8A0063C025E00
:1011120006340E120EA091EF08F00D809CEF08F03D
:10112200045000260550D8B0053C01260650D8B020
:10113200062802260D900B2E78EF08F0C2EF08F079
:10114200D8900036013602360E360450005E055045
:10115200D8A0053C015E0650D8A0063C025E0634CB
:101162000E10010B0D26D8B00C2AD8B4082AD8A428
:10117200C2EF08F008320C320D32032AD8B4D5EF90
:1011820008F00AAE089E0850026E0C50016E0D5017
:10119200006EDDEF08F0010E07DFDDEF08F0020E52
:1011A20058EC00F0DDEF08F0040E4CEC00F0DDEF3F
:0A11B20008F0080E3BEC00F01200FC
:1011BC000001916B926B89C093F08AC094F08BC044
:1011CC0095F08CC096F0800E8C19006E800E005C31
:1011DC0008E1000E8B5D05E1000E8A5D02E1000E58
:1011EC00895D10E2010E916F000E926F936B946B00
:1011FC00956B966B8951935F8A51945B8B51955B80
:10120C008C51965B93C097F094C098F095C099F070
:10121C0096C09AF08DC09BF08EC09CF006DC0B0E35
:10122C008F6F000E906F000E006E9051005C02E10B
:10123C008F51000819E28F518D25E16E90518E214E
:10124C00E26E010E8F5D006E000E9059016E005023
:10125C008D25E96E01508E21EA6EEECFE6FF010E70
:10126C008F5F000E905BDFD78DC0E1FF8EC0E2FF79
:10127C00200EE66E915192111AE08F6B906B8F518C
:10128C008D25E96E90518E21EA6EEE50200A03E115
:10129C008F4B902BF4D7010E8F5F000E905B8F510C
:1012AC008D25E16E90518E21E26E2D0EE66E1200B0
:1012BC0010D0800E0001896F1AD0C00E896F17D024
:1012CC00940E896F14D0D40E896F11D0800E896F53
:1012DC000ED000018951010AECE08951020AEDE0BF
:1012EC008951030AEDE08951040AEDE0EFD78A0534
:1012FC00006E8951002600C089F000C0A1F001ECFD
:10130C0002F062968D6B8D518B25E96E000E8C214F
:10131C00EA6EEE520BE08D518B25E96E000E8C219E
:10132C00EA6EEECF97F034DE8D2BEDD7628612008D
:10133C000001956B966B89C091F08AC092F08BC0BE
:10134C0093F08CC094F09451FF0A08E19351FF0A7A
:10135C0005E19251FF0A02E19151FF0A0DE18DC0A6
:10136C0097F08EC098F0420E996F000E9A6FF4ECC5
:10137C0004F0030E006E1200010E8F6F93AF0ED0AF
:10138C00800E9319006E00C093F08F2B8DC0E1FF7F
:10139C008EC0E2FF2D0EE66E8D4B8E2B000E006E76
:1013AC00941908E10050931905E10050921902E1DB
:1013BC009151000A0CE18DC097F08EC098F0400E50
:1013CC00996F000E9A6FF4EC04F0006A12009451BD
:1013DC00FF0A08E19351000A05E19251000A02E16B
:1013EC009151000A0DE18DC097F08EC098F03C0E23
:1013FC00996F000E9A6FF4EC04F08FC000F012009D
:10140C00000E046E000E056E000E066E7F0E076E4B
:10141C0091C000F092C001F093C002F094C003F0B0
:10142C000EEC04F0010ED8B0000E006E00521CE061
:10143C0091C000F092C001F093C002F094C003F090
:10144C00000E046E000E056E200E066E820E076EE8
:10145C0036EC03F000C091F001C092F002C093F0A2
:10146C0003C094F09607CCD7000E046E000E056EE8
:10147C00200E066E820E076E91C000F092C001F035
:10148C0093C002F094C003F00EEC04F0000ED8B040
:10149C00010E006E00521CE091C000F092C001F0F1
:1014AC0093C002F094C003F0CD0E046ECC0E056E0A
:1014BC004C0E066E7B0E076E36EC03F000C091F0FE
:1014CC0001C092F002C093F003C094F0962BCCD7DD
:1014DC00FF0E9115086EFF0E9215096E7F0E931577
:1014EC000A6E000E94150B6E08C004F009C005F0CE
:1014FC000AC006F00BC007F0043604900536063619
:10150C000736000E9115006E000E9215016E000E3E
:10151C009315026EFF0E9415036E00C091F001C07E
:10152C0092F002C093F003C094F004509111006E3D
:10153C0005509211016E06509311026E07509411D2
:10154C00036E00C091F001C092F002C093F003C092
:10155C0094F07F0E945D006E00C090F0010E946FBD
:10156C0000C004F091C000F092C001F093C002F0F2
:10157C0094C003F0045007E00036009001360236A8
:10158C000336FF0FF8D700C091F001C092F002C0F3
:10159C0093F003C094F08DC0E1FF8EC0E2FF945134
:1015AC00300FE66E8D4B8E2B800E9619006E800ED2
:1015BC00010A005C08E3800E060A006E800E961984
:1015CC00005C01E30AD08DC0E1FF8EC0E2FF2E0E5D
:1015DC00E66E8D4B8E2B010E956F060E906F905113
:1015EC00000A54E0946B91C000F092C001F093C0DB
:1015FC0002F094C003F00036009001360236033638
:10160C000036009001360236033691510026925175
:10161C000122935102229451032200C091F001C087
:10162C0092F002C093F003C094F091C000F092C00D
:10163C0001F093C002F094C003F000360090013624
:10164C000236033600C091F001C092F002C093F054
:10165C0003C094F08DC0E1FF8EC0E2FF9451300FB7
:10166C00E66E8D4B8E2B9551000A0EE19607965126
:10167C00000A0AE18DC0E1FF8EC0E2FF2E0EE66E7D
:10168C008D4B8E2B010E956F9007A9D7FF0E8D25D4
:10169C00E96EFF0E8E21EA6EEE50300A05E1010E66
:1016AC008D5F000E8E5BF2D7FF0E8D25E96EFF0E5F
:1016BC008E21EA6EEE502E0A04E1010E8D5F000EB3
:1016CC008E5B9651000A3FE08DC0E1FF8EC0E2FFB9
:1016DC00650EE66E8D4B8E2B800E9619006E800E6D
:1016EC00000A005C0BE28DC0E1FF8EC0E2FF2D0E04
:1016FC00E66E8D4B8E2B96510008966F96C090F02F
:10170C00965109080FE20A0E046E90C000F0C6EC68
:10171C0003F08DC0E1FF8EC0E2FF0050300FE66E8B
:10172C008D4B8E2B0A0E046E90C000F0C6EC03F0AD
:10173C0008C000F08DC0E1FF8EC0E2FF0050300FFA
:10174C00E66E8D4B8E2B8DC0E1FF8EC0E2FFE66AFC
:04175C00006A12000D
:10176000400E0001A16F01EC02F08B6B8B5107085A
:1017700011E3FE0E8B25F66E210EF76E000EF7229A
:10178000000EF86E000EF8220900F5CF97F006DC87
:101790008B2BECD7020EA16F01EC02F089C097F001
:0C17A0008AC098F0996B8CEC05F01200E8
:1017AC0028C089F029C08AF02AC08BF02BC08CF09D
:1017BC00740E00018D6F000E8E6FFADC020E896FB5
:1017CC00020E8A6F740E8B6F000E8C6F71DD12001F
:1017DC0062A006D06290010E0001A16F01EC02F034
:0217EC001200E9
:1017EE00010EC26ED9EC07F000C04CF001C04DF0F6
:1017FE00FDEC07F0000E046E000E056E200E066E58
:10180E00810E076E36EC03F0000E046E000E056EB0
:10181E00000E066E890E076E0DDC00C048F001C08A
:10182E0049F002C04AF003C04BF0000E046E000EE9
:10183E00056E480E066E850E076E36EC03F000C080
:10184E0085F001C086F002C087F003C088F085C025
:10185E0048F086C049F087C04AF088C04BF05EC0A1
:10186E0000F05FC001F060C002F061C003F0000E36
:10187E00046E000E056E000E066E7E0E076EBBEC3D
:10188E0005F085C004F086C005F087C006F088C05C
:10189E0007F00EEC04F0010ED8B0000E006E0052F0
:1018AE002BE1000E046E000E056E000E066E7E0E0F
:1018BE00076E5EC000F05FC001F060C002F061C054
:1018CE0003F01EEC08F000C004F001C005F002C0E9
:1018DE0006F003C007F048C000F049C001F04AC04E
:1018EE0002F04BC003F00EEC04F0010ED8B0000E67
:1018FE00006E005201E108D048C05EF049C05FF0B2
:10190E004AC060F04BC061F048C004F049C005F019
:10191E004AC006F04BC007F05AC000F05BC001F0A1
:10192E005CC002F05DC003F00EEC04F0010ED8B006
:10193E00000E006E005208E048C05AF049C05BF03D
:10194E004AC05CF04BC05DF056C004F057C005F0C5
:10195E0058C006F059C007F048C000F049C001F069
:10196E004AC002F04BC003F00EEC04F0010ED8B0EA
:10197E00000E006E005208E048C056F049C057F005
:10198E004AC058F04BC059F062B465D05EC089F0C1
:10199E005FC08AF060C08BF061C08CF0800E0001D9
:1019AE008D6F000E8E6FC3DCCD0E046ECC0E056EE9
:1019BE004C0E066E7A0E076E5EC000F05FC001F030
:1019CE0060C002F061C003F00EEC04F0010ED8B05E
:1019DE00000E006E005219E0020E976F060E986F01
:1019EE00300E996F8CEC05F0300E976FCEEC07F041
:1019FE002E0E976FCEEC07F0300E976FCEEC07F0F1
:101A0E00300E976FCEEC07F018D0020E976F060EC1
:101A1E00986F80C099F08CEC05F081C097F0CEECF9
:101A2E0007F082C097F0CEEC07F083C097F0CEECB3
:101A3E0007F084C097F0CEEC07F0020E896F0D0E02
:101A4E008A6F87DE020E976F0E0E986F430E996F98
:101A5E008CEC05F091D062B248D000015AC089F0EA
:101A6E005BC08AF05CC08BF05DC08CF0800E8D6F19
:101A7E00000E8E6F5CDC020E976F010E986F4D0E8E
:101A8E00996F8CEC05F0610E976FCEEC07F0780E27
:101A9E00976FCEEC07F03A0E976FCEEC07F0020E72
:101AAE00976F050E986F80C099F08CEC05F081C091
:101ABE0097F0CEEC07F082C097F0CEEC07F083C023
:101ACE0097F0CEEC07F084C097F0CEEC07F0020E44
:101ADE00896F0D0E8A6F3DDE020E976F0E0E986F98
:101AEE00430E996F8CEC05F047D0000156C089F07B
:101AFE0057C08AF058C08BF059C08CF0800E8D6F95
:101B0E00000E8E6F14DC020E976F010E986F4D0E45
:101B1E00996F8CEC05F0690E976FCEEC07F06E0E98
:101B2E00976FCEEC07F03A0E976FCEEC07F0020EE1
:101B3E00976F050E986F80C099F08CEC05F081C000
:101B4E0097F0CEEC07F082C097F0CEEC07F083C092
:101B5E0097F0CEEC07F084C097F0CEEC07F0020EB3
:101B6E00896F0D0E8A6FF5DD020E976F0E0E986F50
:0A1B7E00430E996F8CEC05F0120085
:101B880081B20CD0020E0001896F010E8A6F200EFF
:101B98008B6F000E8C6F5EEC09F00BD00001020E0B
:101BA800896F010E8A6F180E8B6F000E8C6F5EECBA
:101BB80009F081B40BD0020E896F090E8A6F340EBA
:101BC8008B6F000E8C6F5EEC09F00AD0020E896FE5
:101BD800090E8A6F4E0E8B6F000E8C6F5EEC09F04B
:021BE8001200E9
:101BEA00010E0001976F75EC04F0FDEC07F0000E92
:101BFA00046E000E056E200E066E810E076E36EC20
:101C0A0003F0000E046E000E056E000E066E890EBD
:101C1A00076E21EC08F000C030F001C031F002C0BC
:101C2A0032F003C033F000C089F001C08AF002C06C
:101C3A008BF003C08CF0630E00018D6F000E8E6F67
:101C4A009EEC09F00A0E046ED70E056E230E066E80
:101C5A00780E076E30C000F031C001F032C002F0D9
:101C6A0033C003F00EEC04F0010ED8B0000E006E83
:101C7A00005225E0020E976F080E986F300E996F8A
:101C8A008CEC05F0300E976FCEEC07F02E0E976FA6
:101C9A00CEEC07F0300E976FCEEC07F0300E976F50
:101CAA00CEEC07F0200E976FCEEC07F0200E976F60
:101CBA00CEEC07F0200E976FCEEC07F051D0020E53
:101CCA00976F080E986F63C099F08CEC05F064C0AA
:101CDA0097F0CEEC07F065C097F0CEEC07F066C03F
:101CEA0097F0CEEC07F067C097F0CEEC07F0000E45
:101CFA00046E000E056E000E066E7F0E076E30C073
:101D0A0000F031C001F032C002F033C003F00EEC33
:101D1A0004F0010ED8B0000E006E00520DE0450E20
:101D2A00976FCEEC07F02D0E976FCEEC07F0310EC1
:101D3A00976FCEEC07F00CD0200E976FCEEC07F021
:101D4A00200E976FCEEC07F0200E976FCEEC07F0BF
:101D5A00020E976F100E986F560E996F8CEC05F065
:021D6A00120065
:101D6C002CC089F02DC08AF02EC08BF02FC08CF0C7
:101D7C00680E00018D6F000E8E6FDEEC08F0020E07
:101D8C00896F020E8A6F680E8B6F000E8C6F5EEC83
:041D9C0009F0120038
:101DA0001DDD010E0001976F020E986F540E996FA2
:101DB0008CEC05F0650E976FCEEC07F06D0E976F0B
:101DC000CEEC07F0700E976FCEEC07F0650E976FB4
:101DD000CEEC07F0720E976FCEEC07F0610E976FA6
:101DE000CEEC07F0740E976FCEEC07F0750E976F80
:101DF000CEEC07F0720E976FCEEC07F0610E976F86
:101E0000CEEC07F0020E976F010E986F490E996F96
:101E10008CEC05F06E0E976FCEEC07F0740E976F9A
:101E2000CEEC07F03A0E976FCEEC07F06294DFDC51
:021E300012009E
:101E320081AC178081AE178281AC0AD017A008D07E
:101E42001790628016061650000A02E1060E166E00
:101E520081AE0AD017A208D017926280162A1650B5
:0A1E6200070A02E1010E166E1200DD
:101E6C000900F5CFE6FF0006FBE10106F9E11200DF
:101E7C00959695949598959A959C959E8396839412
:101E8C00839E839C839A83982CEC00F02CEC00F0BE
:101E9C002CEC00F0838A838883862AEC00F08396EE
:101EAC002CEC00F083862AEC00F083962CEC00F0EE
:101EBC0083862AEC00F083962CEC00F083988386C2
:101ECC002AEC00F083962CEC00F083862AEC00F0D0
:101EDC008396839A838E83862AEC00F083962CEC6F
:101EEC0000F0839E838883862AEC00F08396839887
:101EFC0083862AEC00F083962CEC00F083862AEC87
:101F0C0000F08396838883862AEC00F083962CEC71
:101F1C0000F0839883862AEC00F08396838E838C62
:101F2C00838A838883862AEC00F083962CEC00F05D
:041F3C0062861200A7
:101F40004DDC010E0001976F020E986F540E996FD1
:101F50008CEC05F0650E976FCEEC07F06D0E976F69
:101F6000CEEC07F0700E976FCEEC07F0650E976F12
:101F7000CEEC07F0720E976FCEEC07F0610E976F04
:101F8000CEEC07F0740E976FCEEC07F0750E976FDE
:101F9000CEEC07F0720E976FCEEC07F0610E976FE4
:0A1FA000CEEC07F0628423DC12008F
:101FAA0018DC010E0001976F020E986F500E996FA0
:101FBA008CEC05F0750E976FCEEC07F06C0E976FF0
:101FCA00CEEC07F0730E976FCEEC07F06F0E976F9B
:101FDA00CEEC07F0730E976FCEEC07F03A0E976FC0
:081FEA00CEEC07F0BEDE120090
:101FF200EEEC0BF0010E0001976F020E986F540E7B
:10200200996F8CEC05F0650E976FCEEC07F06D0EB4
:10201200976FCEEC07F0700E976FCEEC07F06F0E55
:0C202200976FCEEC07F0D6EC0BF012002C
:10202E00EEEC0BF0010E0001976F020E986F560E3C
:10203E00996F8CEC05F06F0E976FCEEC07F06C0E6F
:10204E00976FCEEC07F0740E976FCEEC07F0690E1B
:10205E00976FCEEC07F06D0E976FCEEC07F0650E16
:10206E00976FCEEC07F0740E976FCEEC07F0720EF2
:10207E00976FCEEC07F06F0E976FCEEC07F0020E57
:10208E00976F010E986F540E996F8CEC05F0650EDC
:10209E00976FCEEC07F06E0E976FCEEC07F0730EC7
:1020AE00976FCEEC07F0610E976FCEEC07F06F0EC8
:1020BE00976FCEEC07F03A0E976FCEEC07F0050E49
:0620CE00C26E8CDD120061
:1020D400EEEC0BF0010E0001976F020E986F450EA7
:1020E400996F8CEC05F06E0E976FCEEC07F0740EC2
:1020F400976FCEEC07F0720E976FCEEC07F0610E7F
:10210400976FCEEC07F0640E976FCEEC07F0610E7C
:10211400976FCEEC07F0730E976FCEEC07F032DDBD
:022124001200A7
:1021260003EC11F0F00EF26EF18CD58ED59CD59A9B
:10213600D586B00ED66E3C0ED76E010EC26E0D0E53
:10214600C16EFF0E926EFF0E936EF90E816E629255
:102156006294629090DE010E0001A16F01EC02F024
:102166000C0EA16F01EC02F061DE0CD016DE1CD065
:10217600E4DE1AD059DF18D015DF16D037DF14D0B9
:10218600A6DF12D01650010AF1E01650020AF0E05E
:102196001650030AEFE01650040AEEE01650050A40
:0C21A600EDE01650060AECE0DFD7FFD792
:1022060010EE16F04C0E006E010E016EB20EF66E5A
:0E221600210EF76E000EF86E36EC0FF012007F
:0121B200012B
:0121B300002B
:0821B4004368313A4F6E200030
:0821BC004368313A4F666600EA
:0421C4000000000017
:0421C8000000000013
:0421CC00000000000F
:0821D0004368323A4F666600D5
:0421D800494E460026
:0221DC003000D1
:0421DE004E614E0000
:0121E20000FC
:0121E30000FB
:0421E40000000000F7
:0221E8000000F5
:0821EA004368323A4F6E2000F9
:0421F200000016864D
:0421F60000000000E5
:0421FA0000000000E1
:0821FE000609060000000000C4
:020000040030CA
:0D000100021F1EFF8381FF0FC00FE00F40A4
:00000001FF
