:02000000072CCB
:10000800FF00030E8301B3000A08B4008A017008D8
:10001800A1000B1D30280B11B2308100861922284F
:100028002408003A031D22288610860187018615B8
:100038002208B60089230130A40030288618302809
:100048002408013A031D3028861186018701861489
:100058002308B6008923A4012108F00034088A0087
:0A006800330E8300FF0E7F0E090027
:10007200FB09FA09F909F809F80A0319F90A031937
:08008200FA0A0319FB0A080049
:10008A007408F8027508031C750FF9027608031C38
:10009A00760FFA027708031C770FFB02F30D07307D
:1000AA00FC00730DF80DF90DFA0DFB0D7408731CA5
:1000BA006C28F8027508031C750FF9027608031CF0
:1000CA00760FFA027708031C770FFB027928F807E4
:1000DA0075080318750FF90776080318760FFA07DB
:1000EA0077080318770FFB07F30DFC0B5628720DE0
:1000FA00F80DF90DFA0DFB0D7408731C9228F8021D
:10010A007508031C750FF9027608031C760FFA02AC
:10011A007708031C770FFB029F28F8077508031856
:10012A00750FF90776080318760FFA077708031888
:10013A00770FFB07F20D0730FC00720DF80DF90D71
:10014A00FA0DFB0D7408721CB828F8027508031C16
:10015A00750FF9027608031C760FFA027708031C5A
:10016A00770FFB02C528F80775080318750FF907FA
:10017A0076080318760FFA0777080318770FFB0734
:10018A00F20DFC0BA228710DF80DF90DFA0DFB0DFD
:10019A007408721CDE28F8027508031C750FF90230
:1001AA007608031C760FFA027708031C770FFB0206
:1001BA00EB28F80775080318750FF907760803186E
:1001CA00760FFA0777080318770FFB07F10D073048
:1001DA00FC00710DF80DF90DFA0DFB0D7408711C78
:1001EA000429F8027508031C750FF9027608031C26
:1001FA00760FFA027708031C770FFB021129F8071A
:10020A0075080318750FF90776080318760FFA07A9
:10021A0077080318770FFB07F10DFC0BEE28700D1A
:10022A00F80DF90DFA0DFB0D7408711C2A29F80254
:10023A007508031C750FF9027608031C760FFA027B
:10024A007708031C770FFB023729F807750803188C
:10025A00750FF90776080318760FFA077708031857
:10026A00770FFB07F00D0730FC00700DF80DF90D44
:10027A00FA0DFB0D7408701C5029F8027508031C4E
:10028A00750FF9027608031C760FFA027708031C29
:10029A00770FFB025D29F80775080318750FF90730
:1002AA0076080318760FFA0777080318770FFB0703
:1002BA00F00DFC0B3A29701870297408F8077508B4
:1002CA000318750FF90776080318760FFA077708E7
:0802DA000318770FFB07080071
:0E02E200073083120313FD00FD0B7529080081
:0E02F0008312031332088A00310882000800CE
:1002FE00831203139F01C0309F0483161F179F178D
:10030E0083123508F000F00D7010F00D7010F00D26
:10031E00701070089F041F1471211F151F1D99293D
:10032E00000095291F101E08F100F00183161E080B
:08033E00F0040030F104080096
:10034600831203132230FC00F801F901FA01FB01C4
:10035600FC030319D9290310FB0CFA0CF90CF80C51
:10036600F30CF20CF10CF00C031CAB29FC03031983
:10037600CB297408F80775080318750FF90776086E
:100386000318760FFA0777080318770FFB07AF29CC
:100396007408F80775080318750FF9077608031827
:0E03A600760FFA0777080318770FFB07080099
:1003B400831203137408003A031DF5297508003AE3
:1003C400031DF5297608003A031DF5297708003A3C
:1003D400031DF529FF30F000FF30F100FF30F2007B
:1003E4007F30F300080083120313FC01F71BFC0A9F
:1003F400FD01FB01FA01F901F801730872047104AB
:1004040070040319892A73087706A000A01BFD094C
:10041400F71F172AF409F509F609F709F40A03196D
:10042400F50A0319F60A0319F70AF31F242AF00937
:10043400F109F209F309F00A0319F10A0319F20A9E
:100444000319F30A73087704A000A01B452A45206A
:10045400FC1B622AFD1F892AF009F109F209F3093C
:10046400F00A0319F10A0319F20A0319F30AF80945
:10047400F909FA09FB09F80A0319F90A0319FA0A2E
:100484000319FB0A892AF71F5C2AF31B562A7308EF
:10049400FB007208FA007108F9007008F800F30113
:1004A400F201F101F0012C2AF301F201F101F00152
:1004B400F00A0034F309F209F109F009FC17292ABA
:1004C400F80A0319F90A0319FA0A0319FB0A74084A
:1004D4007802031D2C2A75087902031D2C2A76083C
:1004E4007A02031D2C2A77087B02031D2C2AFB01A8
:1004F400FA01F901F801F00A0319F10A0319F20AE1
:100504000319F30AF31F2C2AA0012016FF34A001BB
:0A0514007C1C8D2A3920003E0800EF
:10051E0083120313B5017F2170088312A90071089D
:10052E00AA00AB01AC012908F0002A08F1002B0843
:10053E00F2002C08F300F430F4000130F500F6015F
:10054E00F701A3210A30F4007008F5007108F600D7
:10055E007208F7007308F80074080319BF2AF80C24
:10056E00F70CF60CF50CF813781BF817FF3EB42AAF
:10057E007508AD007608AE007708AF007808B000B9
:10058E002508F1002608F2002708F3002808F400D9
:10059E00F10A0319F20A0319F30A0319F40A803057
:1005AE007406F000803078067002031DE82A770882
:1005BE007302031DE82A76087202031DE82A7508E5
:1005CE007102031C1C2B831203130130F000F10186
:1005DE00F201F3012508F4002608F5002708F600BD
:1005EE002808F7007008F4027108031C710FF50259
:1005FE007208031C720FF6027308031C730FF702C6
:10060E0080303006F000803077067002031D192B03
:10061E0076082F02031D192B75082E02031D192BA8
:10062E0074082D02031C1C2B7C2B831203132D0824
:10063E00A5002E08A6002F08A7003008A8008030BD
:10064E00F000803030067002031D372B2F08003C5F
:10065E00031D372B2E08003C031D372B2D08633C42
:10066E0003183E2B0930A2000930A3007C2B8030EA
:10067E003006F00080307002031D4F2B00302F0229
:10068E00031D4F2B00302E02031D4F2B01302D0268
:10069E000318542BA201A3017C2B0A30F400F501A0
:1006AE00F601F7012D08F0002E08F1002F08F200D8
:1006BE003008F300DA217008A2000A30F400F501C8
:1006CE00F601F7012D08F0002E08F1002F08F200B8
:1006DE003008F300DA217808F0007908F1007A0882
:0C06EE00F2007B08F3007008A300080075
:1006FA0078218A110A128000840AB10A0319B20AFF
:08070A00F003031D7D2B080024
:10071200DC2B831203130716871607178717861613
:1007220006178613062C07128716071787138612D9
:1007320006138613062C07168716071387178616C5
:1007420006138617062C07168716071787178612B1
:1007520006138617062C07128716071787138612A9
:1007620006178617062C0716871207178717861291
:1007720006178617062C071687120717871786167D
:1007820006178617062C0716871607178713861271
:1007920006138613062C0716871607178717861661
:1007A20006178617062C0716871607178713861251
:1007B20006178617062C831203133608003A03190C
:1007C2008A2B3608013A0319942B3608023A031988
:1007D2009C2B3608033A0319A42B3608043A031952
:1007E200AC2B3608053A0319B42B3608063A03191E
:1007F200BC2B3608073A0319C42B3608083A0319EA
:0C080200CC2B3608093A0319D42B08004F
:10080E0083120313A201A301A401A501A601A7014E
:10081E00A801A901AA01AB01AC01AD01AE01AF0166
:10082E00B001073083169C00153086000F3087000C
:10083E00FF30850085308100A0308B00B2308312EE
:10084E0081008611861041309F004E3083169F0026
:10085E008F220630FB001330FC00AD30FD00FD0B87
:10086E00362CFC0B362CFB0B362C000000002F2CEC
:02087E003F2C0D
:02400E00012F80
:00000001FF
