:1000000031EF00F00000000000EF00F00000000001
:0A0010000000000000000000F3D71C
:10001C000900F5CFE6FF0006FBE10106F9E112004D
:10002C008A80050E0B6E0F0E0C6EF10E0D6E0D2EE2
:10003C00FED70C2EFCD70B2EFAD78A90050E0B6E22
:10004C000F0E0C6EF10E0D6E0D2EFED70C2EFCD776
:06005C000B2EFAD7120082
:100062000F0EC16EFE0E936EFE0E816E8A90DDDF64
:10007200B30E256E150E266E000E276E286E380EF4
:10008200296E900E2A6E0D0E2B6E000E2C6E5C0EDB
:10009200316E110E326E000E336E346E610E2D6EA5
:1000A2001E0E2E6E000E2F6E306E310E196EDE0E8B
:1000B2001A6E0B0E1B6E000E1C6EB80E156E220E03
:1000C200166E000E176E186E2A0E216E2C0E226E00
:1000D2000A0E236E000E246EF30E1D6E780E1E6E37
:1000E200080E1F6E000E206EB30E256E150E266EC4
:1000F200000E276E286E380E296E900E2A6E0D0E97
:100102002B6E000E2C6E5C0E316E110E326E000ED6
:10011200336E346E610E2D6E1E0E2E6E000E2F6E1D
:10012200306E310E196EDE0E1A6E0B0E1B6E000E45
:100132001C6EB80E156E220E166E000E176E186E1D
:100142002A0E216E2C0E226E0A0E236E000E246ED3
:10015200F30E1D6E780E1E6E080E1F6E000E206EC0
:10016200B30E256E150E266E000E276E286E380E03
:10017200296E900E2A6E0D0E2B6E000E2C6E5C0EEA
:10018200316E110E326E000E336E346E610E2D6EB4
:100192001E0E2E6E000E2F6E306E310E196EDE0E9A
:1001A2001A6E0B0E1B6E000E1C6EB80E156E220E12
:1001B200166E000E176E186E2A0E216E2C0E226E0F
:1001C2000A0E236E000E246EF30E1D6E780E1E6E46
:1001D200080E1F6E000E206EB30E256E150E266ED3
:1001E200000E276E286E380E296E900E2A6E0D0EA6
:1001F2002B6E000E2C6E5C0E316E110E326E000EE6
:10020200336E346E610E2D6E1E0E2E6E000E2F6E2C
:10021200306E310E196EDE0E1A6E0B0E1B6E000E54
:100222001C6EB80E156E220E166E000E176E186E2C
:100232002A0E216E2C0E226E0A0E236E000E246EE2
:10024200F30E1D6E780E1E6E080E1F6E000E206ECF
:10025200B30E256E150E266E000E276E286E380E12
:10026200296E900E2A6E0D0E2B6E000E2C6E5C0EF9
:10027200316E110E326E000E336E346E610E2D6EC3
:100282001E0E2E6E000E2F6E306E310E196EDE0EA9
:100292001A6E0B0E1B6E000E1C6EB80E156E220E21
:1002A200166E000E176E186E2A0E216E2C0E226E1E
:1002B2000A0E236E000E246EF30E1D6E780E1E6E55
:1002C200080E1F6E000E206EB30E256E150E266EE2
:1002D200000E276E286E380E296E900E2A6E0D0EB5
:1002E2002B6E000E2C6E5C0E316E110E326E000EF5
:1002F200336E346E610E2D6E1E0E2E6E000E2F6E3C
:10030200306E310E196EDE0E1A6E0B0E1B6E000E63
:100312001C6EB80E156E220E166E000E176E186E3B
:100322002A0E216E2C0E226E0A0E236E000E246EF1
:10033200F30E1D6E780E1E6E080E1F6E000E206EDE
:10034200B30E256E150E266E000E276E286E380E21
:10035200296E900E2A6E0D0E2B6E000E2C6E5C0E08
:10036200316E110E326E000E336E346E610E2D6ED2
:100372001E0E2E6E000E2F6E306E310E196EDE0EB8
:100382001A6E0B0E1B6E000E1C6EB80E156E220E30
:10039200166E000E176E186E2A0E216E2C0E226E2D
:1003A2000A0E236E000E246EF30E1D6E780E1E6E64
:1003B200080E1F6E000E206EB30E256E150E266EF1
:1003C200000E276E286E380E296E900E2A6E0D0EC4
:1003D2002B6E000E2C6E5C0E316E110E326E000E04
:1003E200336E346E610E2D6E1E0E2E6E000E2F6E4B
:1003F200306E310E196EDE0E1A6E0B0E1B6E000E73
:100402001C6EB80E156E220E166E000E176E186E4A
:100412002A0E216E2C0E226E0A0E236E000E246E00
:10042200F30E1D6E780E1E6E080E1F6E000E206EED
:10043200B30E256E150E266E000E276E286E380E30
:10044200296E900E2A6E0D0E2B6E000E2C6E5C0E17
:10045200316E110E326E000E336E346E610E2D6EE1
:100462001E0E2E6E000E2F6E306E310E196EDE0EC7
:100472001A6E0B0E1B6E000E1C6EB80E156E220E3F
:10048200166E000E176E186E2A0E216E2C0E226E3C
:100492000A0E236E000E246EF30E1D6E780E1E6E73
:1004A200080E1F6E000E206EB30E256E150E266E00
:1004B200000E276E286E380E296E900E2A6E0D0ED3
:1004C2002B6E000E2C6E5C0E316E110E326E000E13
:1004D200336E346E610E2D6E1E0E2E6E000E2F6E5A
:1004E200306E310E196EDE0E1A6E0B0E1B6E000E82
:1004F2001C6EB80E156E220E166E000E176E186E5A
:100502002A0E216E2C0E226E0A0E236E000E246E0F
:10051200F30E1D6E780E1E6E080E1F6E000E206EFC
:10052200B30E256E150E266E000E276E286E380E3F
:10053200296E900E2A6E0D0E2B6E000E2C6E5C0E26
:10054200316E110E326E000E336E346E610E2D6EF0
:100552001E0E2E6E000E2F6E306E310E196EDE0ED6
:100562001A6E0B0E1B6E000E1C6EB80E156E220E4E
:10057200166E000E176E186E2A0E216E2C0E226E4B
:100582000A0E236E000E246EF30E1D6E780E1E6E82
:10059200080E1F6E000E206EB30E256E150E266E0F
:1005A200000E276E286E380E296E900E2A6E0D0EE2
:1005B2002B6E000E2C6E5C0E316E110E326E000E22
:1005C200336E346E610E2D6E1E0E2E6E000E2F6E69
:1005D200306E310E196EDE0E1A6E0B0E1B6E000E91
:1005E2001C6EB80E156E220E166E000E176E186E69
:1005F2002A0E216E2C0E226E0A0E236E000E246E1F
:10060200F30E1D6E780E1E6E080E1F6E000E206E0B
:10061200B30E256E150E266E000E276E286E380E4E
:10062200296E900E2A6E0D0E2B6E000E2C6E5C0E35
:10063200316E110E326E000E336E346E610E2D6EFF
:100642001E0E2E6E000E2F6E306E310E196EDE0EE5
:100652001A6E0B0E1B6E000E1C6EB80E156E220E5D
:10066200166E000E176E186E2A0E216E2C0E226E5A
:100672000A0E236E000E246EF30E1D6E780E1E6E91
:10068200080E1F6E000E206EB30E256E150E266E1E
:10069200000E276E286E380E296E900E2A6E0D0EF1
:1006A2002B6E000E2C6E5C0E316E110E326E000E31
:1006B200336E346E610E2D6E1E0E2E6E000E2F6E78
:1006C200306E310E196EDE0E1A6E0B0E1B6E000EA0
:1006D2001C6EB80E156E220E166E000E176E186E78
:1006E2002A0E216E2C0E226E0A0E236E000E246E2E
:1006F200F30E1D6E780E1E6E080E1F6E000E206E1B
:10070200B30E256E150E266E000E276E286E380E5D
:10071200296E900E2A6E0D0E2B6E000E2C6E5C0E44
:10072200316E110E326E000E336E346E610E2D6E0E
:100732001E0E2E6E000E2F6E306E310E196EDE0EF4
:100742001A6E0B0E1B6E000E1C6EB80E156E220E6C
:10075200166E000E176E186E2A0E216E2C0E226E69
:100762000A0E236E000E246EF30E1D6E780E1E6EA0
:10077200080E1F6E000E206EB30E256E150E266E2D
:10078200000E276E286E380E296E900E2A6E0D0E00
:100792002B6E000E2C6E5C0E316E110E326E000E40
:1007A200336E346E610E2D6E1E0E2E6E000E2F6E87
:1007B200306E310E196EDE0E1A6E0B0E1B6E000EAF
:1007C2001C6EB80E156E220E166E000E176E186E87
:1007D2002A0E216E2C0E226E0A0E236E000E246E3D
:1007E200F30E1D6E780E1E6E080E1F6E000E206E2A
:1007F200B30E256E150E266E000E276E286E380E6D
:10080200296E900E2A6E0D0E2B6E000E2C6E5C0E53
:10081200316E110E326E000E336E346E610E2D6E1D
:100822001E0E2E6E000E2F6E306E310E196EDE0E03
:100832001A6E0B0E1B6E000E1C6EB80E156E220E7B
:10084200166E000E176E186E2A0E216E2C0E226E78
:100852000A0E236E000E246EF30E1D6E780E1E6EAF
:10086200080E1F6E000E206EB30E256E150E266E3C
:10087200000E276E286E380E296E900E2A6E0D0E0F
:100882002B6E000E2C6E5C0E316E110E326E000E4F
:10089200336E346E610E2D6E1E0E2E6E000E2F6E96
:1008A200306E310E196EDE0E1A6E0B0E1B6E000EBE
:1008B2001C6EB80E156E220E166E000E176E186E96
:1008C2002A0E216E2C0E226E0A0E236E000E246E4C
:1008D200F30E1D6E780E1E6E080E1F6E000E206E39
:1008E200B30E256E150E266E000E276E286E380E7C
:1008F200296E900E2A6E0D0E2B6E000E2C6E5C0E63
:10090200316E110E326E000E336E346E610E2D6E2C
:100912001E0E2E6E000E2F6E306E310E196EDE0E12
:100922001A6E0B0E1B6E000E1C6EB80E156E220E8A
:10093200166E000E176E186E2A0E216E2C0E226E87
:100942000A0E236E000E246EF30E1D6E780E1E6EBE
:10095200080E1F6E000E206EB30E256E150E266E4B
:10096200000E276E286E380E296E900E2A6E0D0E1E
:100972002B6E000E2C6E5C0E316E110E326E000E5E
:10098200336E346E610E2D6E1E0E2E6E000E2F6EA5
:10099200306E310E196EDE0E1A6E0B0E1B6E000ECD
:1009A2001C6EB80E156E220E166E000E176E186EA5
:1009B2002A0E216E2C0E226E0A0E236E000E246E5B
:1009C200F30E1D6E780E1E6E080E1F6E000E206E48
:0609D20038EF00F0FFD732
:020000040030CA
:0E0000001B0E1F1EFF8381FF0FC00FE00F407D
:00000001FF
