:04000000B9EF01F063
:1000080000C015F0F2A41DD0F2949E0ED76E580EC3
:10001800D66E1A4A1B2A164A172A000E006E175067
:10002800005C02E11650780807E28A92780E166E94
:10003800000E176E1E6A1F6A20A002D0184A192ADD
:08004800ABD815C000F0110057
:100050001D0E0C6E910E0D6E0D2EFED70C2EFCD7C4
:0200600012008C
:0A0062000000000000000000120082
:0C006C00420E0D6E0D2EFED7000012009B
:1000780029BE02D0819E01D0818E29BC02D0819CEC
:1000880001D0818C29BA02D0819A01D0818A29B8FD
:1000980002D0819801D0818820B202D0818401D019
:1000A80081948186DADF819629B602D0819E01D0BB
:1000B800818E29B402D0819C01D0818C29B202D0D2
:1000C800819A01D0818A29B002D0819801D0818893
:1000D80020B202D0818401D081948186BEDF8196CE
:0C00E80020A202D0B1DF01D0BDDF120069
:1000F4000FD0800E266E19D0C00E266E16D0940E28
:10010400266E13D0D40E266E10D0800E266E0DD01F
:100114002650010AEEE02650020AEEE02650030AB9
:10012400EEE02650040AEEE0F0D72704006E2650D5
:10013400002600C026F0208200C029F09BDF209218
:0A01440028C029F097DF2082120086
:0C014E00209226C029F091DF20821200D0
:10015A00086A096A100E0C6E013408360936045012
:10016A00085E0550D8A0053C095ED8B007D00450F7
:10017A0008260550D8B0053C0926D8900036013625
:06018A000C2EEAD7120062
:100190000900F5CFE6FF0006FBE10106F9E11200D8
:1001A000000E191802E1280E1818D8B42084000E89
:1001B0001B1802E1040E1A1806E11A6A1B6A20A431
:0801C00002D01C4A1D2A1200A6
:1001C800939693949398939A939C939E81968194F3
:1001D800819E819C819A819837DF36DF35DF818A5D
:1001E800818881863ADF81962FDF818636DF819686
:1001F8002BDF818632DF819627DF819881862DDF8C
:10020800819622DF818629DF8196819A818E818677
:1002180024DF819619DF819E818881861EDF819681
:10022800819881861ADF81960FDF818616DF819695
:100238008188818612DF819607DF819881860DDFAC
:100248008196818E818C818A8188818606DF81965C
:06025800FBDE2082120013
:10025E00100E046E270E056E1CC000F01DC001F0BE
:10026E0075DF00C021F0100E046E270E056E1CC047
:10027E0000F01DC001F06ADF08C000F009C001F0F7
:10028E00E80E046E030E056E61DF00C022F0E80E6C
:10029E00046E030E056E1CC000F01DC001F056DF8B
:1002AE0008C000F009C001F0640E046E000E056E69
:1002BE004DDF00C023F0640E046E000E056E1CC0F0
:1002CE0000F01DC001F042DF08C000F009C001F0CF
:1002DE000A0E046E000E056E39DF00C024F00A0E01
:1002EE00046E000E056E1CC000F01DC001F02EDF66
:1002FE0008C000F009C001F000C025F0010E266E06
:10030E00070E276E300E2124286EEDDE300E2224CD
:10031E00266E16DF300E2324266E12DF300E2424B6
:0E032E00266E0EDF300E2524266E0ADF12002A
:10033C0081B004D020808A82166A176A81A012D0FC
:10034C0020A010D02090186A196A20941E4A1F2AE7
:10035C00000E006E1F50005C02E11E50010802E20C
:06036C001C4A1D2A1200CC
:10037200780E166E176A186A196A1A6A1B6A1C6A5C
:100382001D6A1E6A1F6A0F0EC16E010E936EA00EC9
:10039200F26EF19E810ED56E9E0ED76E580ED66EFF
:1003A2002090209410DF0C0E296E65DE010E296E5E
:1003B20062DE010E266E020E276E560E286E99DE42
:1003C200610E266EC3DE6C0E266EC0DE3A0E266EFF
:0A03D200BDDEB3DF43DFFDD7FFD728
:020000040030CA
:0E0000001B0E1F1EFF8381FF0FC00FE00F407D
:00000001FF
