:1000000034EF00F00000000000EF00F000000000FE
:0A0010000000000000000000F3D71C
:10001C00000E161802E10A0E151803E1156A166A8D
:10002C008A70000E1C1802E1140E1B1803E11B6AE7
:06003C001C6A8A7212002A
:1000420081AE1D8081AE06D01DA004D01D908A8491
:06005200176A186A120093
:100058000900F5CFE6FF0006FBE10106F9E1120011
:10006800156A166A060E176E186A196A1A6A1B6AE2
:100078001C6A0F0EC16EF19EF80E936EF80E8A6E12
:10008800810ED56E9E0ED76E580ED66EB10ECD6E01
:100098003C0ED76EB00ED66E1D90F2A40AD0F29424
:1000A8009E0ED76E580ED66E154A162A1B4A1C2A63
:1000B800B1DF9EA01DD09E903C0ED76EB00ED66EBE
:1000C800194A1A2A000E1A1802E10A0E19180FE125
:1000D800196A1A6A174A182A000E181802E1050E3A
:1000E800171805E1060E176E000E186E8A94A5DF24
:0400F800D4D7FFD783
:020000040030CA
:0E0000001B0E1F1EFF8381FF0FC00FE00F407D
:00000001FF
