:020000001729BE
:10000600831603139C1C09280000032883123D084D
:1000160083169B0083123E0883169A009C131C15B8
:100026000B08F0008B1355309D00AA309D009C14E0
:0E003600F01B1F288B1320288B171C110800AD
:10004400831203133D0883169B009C131C141A0887
:04005400F0000800B0
:1000580083120313BB01BC01B701B8013808003C87
:10006800031D38283708803C031C832800303802D9
:10007800031D40288030370203187A283708BD004E
:1000880022207008FF3A031D7928003083123806B1
:10009800031D502800303706031D5A283708B900B9
:1000A8003808BA008030B700B8017928003038061F
:1000B800031D60287F303706031D6A283708B900FA
:1000C8003808BA008030B700B8017928370ABD006F
:1000D80022207008FF3A031D792883123708B900D7
:1000E8003808BA008030B700B8017E288312803003
:1000F800BB00BC018312B70A0319B80A32280030C2
:100108003C06031D892880303B06031D8F283B08C9
:10011800B9003C08BA003908F0003A08F1000800B4
:1001280083120313B701B80100303802031D9E285B
:10013800803037020318B3283708BD00FF30BE00EF
:1001480003202130FC007630FD00FD0BA928FC0BB4
:10015800A92800008312B70A0319B80A98280800CA
:0E016800831203132F088A002E08820008005D
:100176002C207008B3007108B40000307106031D0E
:10018600C62800307006031DCB28B501B601E0284D
:1001960000303406031DD12880303306031DD828CD
:1001A6007F30B5000030B600E02801303302B500DC
:1001B6000030031C013E3402B6003508BD00222083
:1001C60070088312B500B6013508F0003608F10054
:0201D60008001F
:1001D8002C207008B4007108B50000307106031DAA
:1001E800F72880307006031DFC289420B401B5015F
:1001F8003408BD003308BE0003202130FC007630EF
:0E020800FD00FD0B0529FC0B05290000080078
:10021600B4208A110A128000840AAE0A0319AF0AB2
:08022600F003031D0B29080081
:10022E0083120313A001A1013F30A2000630A300E8
:10023E005B30A4004F30A5006630A6006D30A700DD
:10024E007D30A8000730A900FF30AA006F30AB0048
:10025E0007309F000330831685008601033083121A
:10026E0085008601BB207008AC007108AD007008D7
:10027E00A0007108A1007008223E840000088600CC
:10028E008312051875292008223E84000008F0000C
:10029E007008B20070088600A00A0319A10A803007
:1002AE00F000803021067002031D5F292008093CF2
:1002BE00031867290930B0000030B100A001A10178
:1002CE000230FB004530FC00A930FD00FD0B6D290E
:1002DE00FC0B6D29FB0B6D2900000000851893297E
:1002EE0000303106031D7D2909303006031D862995
:1002FE000930B300EC208312B001B101892920032B
:10030E00B300EC208230FC00DD30FD00FD0B8D29AA
:0C031E00FC0B8D290000000047299429E9
:02400E00782117
:00000001FF
