:020000001628C0
:0E0006008312031321088A00200882000800DC
:1000140003208A110A128000840AA00A0319A10A83
:08002400F003031D0A28080087
:10002C000730831203139F00FF3083168500E730DF
:10003C009F00E7309F004130FC00EE30FD00FD0BCF
:10004C002528FC0B25280000E6309F004130FC00E1
:10005C00EE30FD00FD0B3028FC0B30280000E530A5
:10006C009F004130FC00EE30FD00FD0B3B28FC0BEB
:10007C003B280000E4309F004130FC00EE30FD00D6
:10008C00FD0B4628FC0B46280000E3309F00413056
:10009C00FC00EE30FD00FD0B5128FC0B512800003C
:1000AC00E2309F004130FC00EE30FD00FD0B5C287F
:1000BC00FC0B5C280000E1309F004130FC00EE306E
:1000CC00FD00FD0B6728FC0B672800001F286D281E
:02400E00582137
:00000001FF
