:04000000C3EF01F059
:1000080000C015F0F2A407D0F294F00ED66ED80E08
:0C001800D76EADD88A7015C000F0110042
:0400240000001200C6
:10002800080E0C6E230E0D6E0D2EFED70C2EFCD76F
:020038001200B4
:0C003A00100E0D6E0D2EFED700001200FF
:1000460032BE02D0839E01D0838E32BC02D0839C06
:1000560001D0838C32BA02D0839A01D0838A32B817
:1000660002D0839801D0838829B002D0838401D03E
:1000760083948386D4DF839632B602D0839E01D0E2
:10008600838E32B402D0839C01D0838C32B202D0EC
:10009600839A01D0838A32B002D0839801D08388B4
:1000A60029B002D0838401D083948386B8DF8396F7
:0C00B60029A002D0B6DF01D0BDDF12008F
:0C00C200299031C032F0BEDF298012000E
:1000CE000FD0800E2C6E19D0C00E2C6E16D0940E42
:1000DE002C6E13D0D40E2C6E10D0800E2C6E0DD034
:1000EE002C50010AEEE02C50020AEEE02C50030ACE
:1000FE00EEE02C50040AEEE0F0D72D04006E2C50EA
:10010E00002600C02CF000C032F096DF2990306A35
:10011E0030502E24E96E000E2F20EA6EEE520BE0C8
:10012E0030502E24E96E000E2F20EA6EEECF31F005
:0A013E00C1DF302AEDD7298012003E
:10014800086A080E0C6E003408360450085ED8B0F1
:0E01580002D00826D89000360C2EF5D71200E3
:100166000900F5CFE6FF0006FBE10106F9E1120002
:10017600282A2850640A10E1286A272A27503C0AB0
:100186000BE1276A262A26506C0A06E1266A252AEA
:0A0196002550180AD8B4256A12009B
:1001A00022C02AF023C02BF00A0E046E25C000F0F6
:1001B000CBDF300E00262AC0E1FF2BC0E2FF00C0DB
:1001C000E6FF010E22242A6E000E23202B6E0A0E5B
:1001D000046E25C000F0B8DF08C000F0300E002625
:1001E0002AC0E1FF2BC0E2FF00C0E6FF030E22247D
:1001F0002A6E000E23202B6E0A0E046E26C000F01D
:10020000A3DF300E00262AC0E1FF2BC0E2FF00C0B2
:10021000E6FF040E22242A6E000E23202B6E0A0E07
:10022000046E26C000F090DF08C000F0300E0026FB
:100230002AC0E1FF2BC0E2FF00C0E6FF060E222429
:100240002A6E000E23202B6E0A0E046E27C000F0CB
:100250007BDF300E00262AC0E1FF2BC0E2FF00C08A
:10026000E6FF070E22242A6E000E23202B6E0A0EB4
:10027000046E27C000F068DF08C000F0300E0026D2
:100280002AC0E1FF2BC0E2FF00C0E6FF090E2224D6
:100290002A6E000E23202B6E0A0E046E28C000F07A
:1002A00053DF300E00262AC0E1FF2BC0E2FF00C062
:1002B000E6FF0A0E22242A6E000E23202B6E0A0E61
:1002C000046E28C000F040DF08C000F0300E0026A9
:1002D0002AC0E1FF2BC0E2FF00C0E6FF010E2C6E3A
:1002E000030E2D6E22C02EF023C02FF0F0DE120080
:1002F000959695949598959A959C959E83968394BA
:10030000839E839C839A83988FDE8EDE8DDE838A24
:100310008388838687DE839687DE838683DE839663
:1003200083DE83867FDE83967FDE839883867ADE14
:1003300083967ADE838676DE8396839A838E83869F
:1003400071DE839671DE839E838883866BDE83965F
:100350008398838667DE839667DE838663DE839673
:10036000838883865FDE83965FDE839883865ADE8A
:100370008396838E838C838A8388838653DE8396D9
:0603800053DE298012008B
:10038600FDEC01F0800EF26ED58ED59CD59AD58601
:10039600F00ED66ED80ED76E0F0EC16EFE0E936E91
:1003A6008A90A3DF0C0E326E4BDE010E326E48DEF3
:1003B60081AE2480F2BA02D081AC248281AE04D010
:1003C60024A002D02490F27A81AC07D024A205D0D2
:1003D6002492256A266A276A286ADFDEE9D7FFD7CC
:1003FA0010EE16F0130E006E010E016EE60EF66E8A
:0E040A00030EF76E000EF86EB3EC00F0120059
:0C03E60030303A30303A30303A303000DD
:0203F2001600F3
:0103F4000008
:0103F5000007
:0103F6000006
:0103F7000005
:0103F8000004
:020000040030CA
:0D000100011F1EFF8381FF0FC00FE00F40A5
:00000001FF
