:1000000085EF01F00000000000EF00F000000000AC
:0A0010000000000000000000F3D71C
:0C001C00100E0D6E0D2EFED7000012001D
:10002800080E0C6E230E0D6E0D2EFED70C2EFCD76F
:020038001200B4
:04003A0000001200B0
:10003E003FBE02D0839E01D0838E3FBC02D0839CF4
:10004E0001D0838C3FBA02D0839A01D0838A3FB805
:10005E0002D0839801D0838836B002D0838401D039
:10006E0083948386E3DF83963FB602D0839E01D0CE
:10007E00838E3FB402D0839C01D0838C3FB202D0DA
:10008E00839A01D0838A3FB002D0839801D08388AF
:10009E0036B002D0838401D083948386C7DF8396E3
:0C00AE0036A002D0BADF01D0B2DF120091
:1000BA00086A080E0C6E003408360450085ED8B080
:0E00CA0002D00826D89000360C2EF5D7120072
:1000D80015C001F0013601900136019001C015F0FC
:1000E800030E8214006E0150001200C015F00F0EAE
:1000F8000016170EE96E000EEA6E0050E926D8B019
:08010800EA2AEECF00F012001C
:100110000FD0800E3C6E19D0C00E3C6E16D0940EDF
:100120003C6E13D0D40E3C6E10D0800E3C6E0DD0C1
:100130003C50010AEEE03C50020AEEE03C50030A5B
:10014000EEE03C50040AEEE0F0D73D04006E3C5077
:10015000002600C03CF0368000C03FF070DF3690D3
:0A0160003EC03FF06CDF3680120055
:0C016A0036903CC03FF066DF368012008B
:10017600959695949598959A959C959E8396839435
:10018600839E839C839A83984CDF4BDF4ADF838A66
:10019600838883864FDF839644DF83864BDF83968F
:1001A60040DF838647DF83963CDF8398838642DF82
:1001B600839637DF83863EDF8396839A838E838694
:1001C60039DF83962EDF839E8388838633DF83968B
:1001D600839883862FDF839624DF83862BDF83969F
:1001E6008388838627DF83961CDF8398838622DFB6
:1001F6008396838E838C838A838883861BDF83968C
:0602060010DF368012003B
:10020C000900F5CFE6FF0006FBE10106F9E112005B
:10021C00386A396A3A6A5ADF00C037F0005205E092
:10022C00010E3F6E06DF37501626640E046E16C0A4
:10023C0000F03DDF00C038F0640E046E16C000F014
:10024C0036DF08C000F00A0E046E31DF00C039F052
:10025C000A0E046E16C000F02ADF08C000F000C0C1
:10026C003AF0020E3C6E070E3D6E300E38243E6E98
:10027C0049DF300E39243C6E72DF300E3A243C6E6E
:04028C006EDF12000F
:100290000FD0800E376E19D0C00E376E16D0940E68
:1002A000376E13D0D40E376E10D0800E376E0DD04F
:1002B0003750010AEEE03750020AEEE03750030AE9
:1002C000EEE03750040AEEE0F0D73804006E375005
:1002D000002600C037F000C03FF0B1DE36903B6A28
:1002E0003B503924E96E000E3A20EA6EEE520BE0E4
:1002F0003B503924E96E000E3A20EA6EEECF3CF016
:0A03000034DF3B2AEDD736801200EF
:10030A00ADEC01F00F0EC16E31DF0C0E3F6E92DEC6
:10031A00010E3F6E8FDE010E376E020E386E270E0B
:0E032A00396E000E3A6EAFDF74DFF5D7FFD7E5
:10035A0010EE15F0210E006E010E016E380EF66ECB
:0E036A00030EF76E000EF86E06EC01F01200A6
:0103380000C4
:0103390000C3
:10033A0000FF0100010000FFFF0000010001FF00B3
:0F034A00546573746520456E636F6E6465720051
:020000040030CA
:0D000100011F1EFF8381FF0FC00FE00F40A5
:00000001FF
