:1000000037EF16F00000000000EF00F000000000E5
:0A0010000000000000000000F3D71C
:10001C00EDC2C9FFC7B002D00000FCD7C9CF00F0B9
:02002C001200C0
:10002E00F250026EF29E0500FF6A0150FE6E005005
:08003E00FD6E02BEF28E1200FD
:100046008B8076C2E1FF77C2E2FFFF0EE66E74C2D6
:0A00560000F075C201F0E8DF1200AF
:040060008B9012006F
:10006400400E0201E425006E76C2E1FF77C2E2FF92
:1000740000C0E6FF74C200F075C201F0D6DF76C29C
:10008400E1FF77C2E2FFE8C2E6FF74C200F075C286
:1000940001F0CBDF76C2E1FF77C2E2FFE7C2E6FF01
:1000A40074C200F075C201F0C0DF76C2E1FF77C20E
:1000B400E2FFE6C2E6FF74C200F075C201F0B5DFEC
:1000C40076C2E1FF77C2E2FFE5C2E6FF74C200F048
:1000D40075C201F0AADF76C2E1FF77C2E2FFE9C28E
:1000E400E6FF74C200F075C201F09FDF0201EB6B02
:1000F400EC6B76C2E1FF77C2E2FFFF0EE66E74C2DC
:1001040000F075C201F091DF00C0EAF20201EB4B8E
:10011400EC2B800E0014016E0150000A07E0000E63
:10012400EC5D02E1640EEB5D01E2E3D7EAC200F0AC
:020134001200B7
:0A01360000000000000000001200AD
:100140001D0E0C6E910E0D6E0D2EFED70C2EFCD7D3
:0201500012009B
:0C015200420E0D6E0D2EFED700001200B4
:10015E00220E0C6E086A096A0A6A0B6A0C06D8B47B
:10016E001FD0D8900B320A320932083203320232D3
:10017E0001320032D8A0F2D70C06D8B409D0045000
:10018E0008260550092206500A2207500B22EAD7EC
:10019E00045008260550092206500A2207500B2249
:0201AE0012003D
:1001B00057DF000E000A02E1040E461809E1D6C21C
:1001C000DEF2D7C2DFF2D8C2E0F2D9C2E1F214D037
:1001D000090E006ED6C2DEF2D7C2DFF2D8C2E0F25C
:1001E000D9C2E1F2005008E00201DE37DE91DF37CC
:1001F000E037E137FF0FF7D70201110EE46FDEC2DF
:10020000E5F2DFC2E6F2E0C2E7F2E1C2E8F2FF0E99
:10021000E96F28DF005204E016DF010E006E1200C5
:1002200076C2E1FF77C2E2FFFF0EE66E74C200F015
:1002300075C201F0FCDE0050FE0A01E0F1D70201B8
:10024000DC6BDD6B020EDD5D02E1000EDC5D1BE2AE
:10025000DC51DA25E26FDD51DB21E36F76C2E1FF8D
:1002600077C2E2FFFF0EE66E74C200F075C201F0C5
:10027000DEDEE2C2E1FFE3C2E2FF00C0E6FF020110
:10028000DC4BDD2BDFD776C2E1FF77C2E2FFFF0E4A
:10029000E66E74C200F075C201F0C9DE76C2E1FFFD
:1002A00077C2E2FFFF0EE66E74C200F075C201F085
:0802B000BEDEC9DE006A120087
:1002B800D3DE000E000A02E1040E461809E1D6C298
:1002C800DEF2D7C2DFF2D8C2E0F2D9C2E1F214D02E
:1002D800090E006ED6C2DEF2D7C2DFF2D8C2E0F253
:1002E800D9C2E1F2005008E00201DE37DE91DF37C3
:1002F800E037E137FF0FF7D70201180EE46FDEC2CF
:10030800E5F2DFC2E6F2E0C2E7F2E1C2E8F2FF0E90
:10031800E96FA4DE005204E092DE010E006E1200C6
:1003280076C2E1FF77C2E2FFFF0EE66E74C200F00C
:1003380075C201F078DE76C2E1FF77C2E2FFFF0EF8
:10034800E66E74C200F075C201F06DDE76C2E1FFA0
:1003580077C2E2FFFE0EE66E74C200F075C201F0CD
:1003680062DE0201DC6BDD6BDD51010802E1DC516C
:10037800FF0815E3DC51DA25E96EDD51DB21EA6E71
:1003880076C2E1FF77C2E2FFEECFE6FF74C200F06B
:1003980075C201F048DE0201DC4BDD2BE5D776C2E1
:1003A800E1FF77C2E2FFFF0EE66E74C200F075C28D
:1003B80001F039DE76C2E1FF77C2E2FFFF0EE66E9A
:1003C80074C200F075C201F02EDE76C2E1FF77C27A
:1003D800E2FFFF0EE66E74C200F075C201F023DE84
:1003E80000C0DCF2000E0201DD6F1F0EDC15016E8D
:1003F800DDC202F0000E021601C0DCF202C0DDF21E
:10040800000E021802E1050E011804E018DE020EC3
:10041800006E120076C2E1FF77C2E2FFFF0EE66EC1
:1004280074C200F075C201F0FEDD0050FF0A01E061
:08043800F1D705DE006A120095
:100440000B6A0A6A096A00500402F4CF09F0F3CF7C
:1004500008F001500502F4CF0BF0F3CF0AF0005082
:100460000502F3500926F4500A22E86A0B220150D3
:100470000402F3500926F4500A22E86A0B2208C04D
:1004800000F009C001F00AC002F00BC003F0120036
:100490006D0E02017A25E16E000E7B21E26EFF0EE9
:1004A000E66E010E7A25006E000E7B21016E6D0E48
:1004B0000024E16E000E0120E26EFF0EE66E7C511C
:1004C000A225D66F7D51A321D76F000EA421D86F2E
:1004D000000EA521D96F6D0EDA6F000EDB6FECDE1A
:1004E00002017C519A25D66F7D519B21D76F000E5A
:1004F0009C21D86F000E9D21D96F6D0EDA6F000E12
:06050000DB6FDADE1200E1
:100506007CC200F07DC201F094C204F095C205F0F1
:1005160094DF7AC202F07BC203F003320232039EFA
:10052600025000240201AC6F03500120AD6F12008F
:100536000201D5BF02D0819E01D0818ED5BD02D0E9
:10054600819C01D0818CD5BB02D0819A01D0818A51
:10055600D5B902D0819801D08188000160B102D05E
:10056600818401D081948186E3DD81960201D5B72D
:1005760002D0819E01D0818ED5B502D0819C01D05A
:10058600818CD5B302D0819A01D0818AD5B102D0AF
:10059600819801D08188000160B102D0818401D0A8
:1005A60081948186C5DD819660A102D0C6DD01D029
:0405B600CDDD120085
:1005BA000B840BAEE8EF02F0010E036E026A016AC9
:0A05CA00006A0A360232FF0E12002A
:0E05D400026A016A006A086A036A000E1200D9
:0805E2000AAE029E000E120099
:1005EA000201D56B7C6B7D6B040E7A6F000E7B6FFC
:1005FA00A2C2D6F2A3C2D7F2A4C2D8F2A5C2D9F235
:10060A006D0EDA6F000EDB6FCEDD02017B51000149
:10061A00681903E1675102017A1916E102017A6B3E
:10062A007B6B7C4B7D2B7C51A225D66F7D51A32100
:10063A00D76F000EA421D86F000EA521D96F6D0EB9
:10064A00DA6F000EDB6FAFDD6D0E02017A25E96EFF
:10065A00000E7B21EA6EEE50000A11E1010E7A25A6
:10066A00006E000E7B21016E6D0E0024E96E000EF5
:10067A000120EA6EEE50000A02E1010ED56F020E69
:10068A007A27000E7B23D553C0E0D56B020E7A5F22
:06069A00000E7B5B120064
:1006A000020E0201AC5D046E000EAD59056E5FC016
:1006B00000F0000E016E026E036E000E066E076EF5
:1006C0004EDD00C096F201C097F202C098F203C05E
:1006D00099F29E510024966F9F510120976FA0516F
:0C06E0000220986FA1510320996F1200B6
:1006EC000B6A0A6A096A086A0E6A033408360450EF
:1006FC00085E0550D8A0053C095E0650D8A0063C03
:10070C000A5E0750D8A0073C0B5EE86AD8A0010E21
:10071C000E5E0336070E0C6E0334083609360A36A5
:10072C000B360E36045003A012D0085E0550D8A02C
:10073C00053C095E0650D8A0063C0A5E0750D8A0BE
:10074C00073C0B5EE86AD8A0010E0E5E11D008269D
:10075C000550D8B0053C09260650D8B0063C0A26F0
:10076C000750D8B0073C0B26E86AD8B0010E0E260D
:10077C0003360C2ED1D70234083609360A360B361E
:10078C000E36045003A012D0085E0550D8A0053CCC
:10079C00095E0650D8A0063C0A5E0750D8A0073C5C
:1007AC000B5EE86AD8A0010E0E5E11D0082605502B
:1007BC00D8B0053C09260650D8B0063C0A2607508E
:1007CC00D8B0073C0B26E86AD8B0010E0E260236CC
:1007DC00070E0C6E0234083609360A360B360E3606
:1007EC00045002A012D0085E0550D8A0053C095E4A
:1007FC000650D8A0063C0A5E0750D8A0073C0B5EFA
:10080C00E86AD8A0010E0E5E11D008260550D8B0AB
:10081C00053C09260650D8B0063C0A260750D8B02D
:10082C00073C0B26E86AD8B0010E0E2602360C2EB9
:10083C00D1D70134083609360A360B360E36045039
:10084C0002A012D0085E0550D8A0053C095E0650E7
:10085C00D8A0063C0A5E0750D8A0073C0B5EE86A9D
:10086C00D8A0010E0E5E11D008260550D8B0053C5C
:10087C0009260650D8B0063C0A260750D8B0073CCB
:10088C000B26E86AD8B0010E0E260136070E0C6E48
:10089C000134083609360A360B360E36045001A0E0
:1008AC0012D0085E0550D8A0053C095E0650D8A0B1
:1008BC00063C0A5E0750D8A0073C0B5EE86AD8A03D
:1008CC00010E0E5E11D008260550D8B0053C092645
:1008DC000650D8B0063C0A260750D8B0073C0B2669
:1008EC00E86AD8B0010E0E2601360C2ED1D7003492
:1008FC00083609360A360B360E36045001A012D0D3
:10090C00085E0550D8A0053C095E0650D8A0063CF0
:10091C000A5E0750D8A0073C0B5EE86AD8A0010E0F
:10092C000E5E11D008260550D8B0053C092606509D
:10093C00D8B0063C0A260750D8B0073C0B26E86A0C
:10094C00D8B0010E0E260036070E0C6E0034083699
:10095C0009360A360B360E36045000A012D0085E4B
:10096C000550D8A0053C095E0650D8A0063C0A5E8E
:10097C000750D8A0073C0B5EE86AD8A0010E0E5EAB
:10098C0011D008260550D8B0053C09260650D8B021
:10099C00063C0A260750D8B0073C0B26E86AD8B0AC
:1009AC00010E0E2600360C2ED1D700B00ED00450FE
:1009BC0008260550D8B0053C09260650D8B0063C90
:0C09CC000A260750D8B0073C0B2612008A
:1009D8000201D0517A0806E3610ED05D03E3010EEF
:0809E800006E01D0006A12004C
:0E09F00000016091D0C2D5F29EDD6081120040
:1009FE000201AE6BAF6BAA6BAB6BF0DD42DD7CDD43
:100A0E006FC2D6F270C2D7F271C2D8F272C2D9F2E8
:100A1E006D0EDA6F000EDB6FD8EC00F00201D46BB6
:100A2E00AF510001681903E167510201AE1917E1D8
:100A3E000201AE6BAF6BAA4BAB2BAA516F25D66FD3
:100A4E00AB517021D76F000E7121D86F000E72213D
:100A5E00D96F6D0EDA6F000EDB6FD8EC00F06D0EF5
:100A6E000201AE25E96E000EAF21EA6EEE50E50AE8
:100A7E000AE06D0EAE25E96E000EAF21EA6EEE5065
:100A8E00000A01E002D0010ED46F200EAE27000E38
:100A9E00AF23D453C5E0D451010AD8A40ED1200EF1
:100AAE00AE5F000EAF5BD36BD3510A0816E3D35182
:100ABE00AE25006E000EAF21016E6D0E0024E16EAC
:100ACE00000E0120E26ED351D025E96E000ED12129
:100ADE00EA6EEECFE6FFD32BE7D71C0ED36F200EB8
:100AEE00D35D0FE2D351AE25006E000EAF21016E25
:100AFE006D0E0024E16E000E0120E26EE66AD32B2D
:100B0E00EED71A0EAE25006E000EAF21016E6D0EE1
:100B1E000024E16E000E0120E26EACC2E6FF1B0E59
:100B2E00AE25006E000EAF21016E6D0E0024E16E3B
:100B3E00000E0120E26EADC2E6FF0B0EAE25006E7A
:100B4E00000EAF21016E6D0E0024E16E000E01202D
:100B5E00E26ED2C2E6FF0D0ED36FD35119080FE32A
:100B6E00D351AE25006E000EAF21016E6D0E002426
:100B7E00E16E000E0120E26EE66AD32BEED70E0E6A
:100B8E00AE25006E000EAF21016E6D0E0024E16EDB
:100B9E00000E0120E26EA6C2E6FF0F0EAE25006E1D
:100BAE00000EAF21016E6D0E0024E16E000E0120CD
:100BBE00E26EA7C2E6FF100EAE25006E000EAF214C
:100BCE00016E6D0E0024E16E000E0120E26EA8C2D1
:100BDE00E6FF110EAE25006E000EAF21016E6D0EFA
:100BEE000024E16E000E0120E26EA9C2E6FF120E95
:100BFE00AE25006E000EAF21016E6D0E0024E16E6B
:100C0E00000E0120E26EA8C2E6FF130EAE25006EA6
:100C1E00000EAF21016E6D0E0024E16E000E01205C
:100C2E00E26EA9C2E6FF160EAE25006E000EAF21D3
:100C3E00016E6D0E0024E16E000E0120E26EA6C262
:100C4E00E6FF170EAE25006E000EAF21016E6D0E83
:100C5E000024E16E000E0120E26EA7C2E6FF180E20
:100C6E00AE25006E000EAF21016E6D0E0024E16EFA
:100C7E00000E0120E26EA8C2E6FF190EAE25006E30
:100C8E00000EAF21016E6D0E0024E16E000E0120EC
:100C9E00E26EA9C2E6FFAA516F25D66FAB51702145
:100CAE00D76F000E7121D86F000E7221D96F6D0EA5
:0E0CBE00DA6F000EDB6F5CEC01F0EBDC120075
:100CCC0002017C51A225D66F7D51A321D76F000E56
:100CDC00A421D86F000EA521D96F6D0EDA6F000E0E
:100CEC00DB6FD8EC00F06D0E02017A25026E000E5F
:100CFC007B21036E02C0E9FF03C0EAFFEECFD1F205
:100D0C00000ED26FD36FD46F000ED26FD36FD46F2F
:100D1C00010E7A25006E000E7B21016E6D0E0024F3
:100D2C00E96E000E0120EA6EEECFD2F27CC287F2A1
:100D3C007DC288F27AC291F27BC292F202C0E1FFCC
:100D4C0003C0E2FFD0C2E6FF010E7A25006E000E52
:100D5C007B21016E6D0E0024E16E000E0120E26E0F
:100D6C00D0C2E6FF7C51A225D66F7D51A321D76F4F
:100D7C00000EA421D86F000EA521D96F6D0EDA6F6D
:100D8C00000EDB6F5CEC01F002017C519A25D66FF2
:100D9C007D519B21D76F000E9C21D86F000E9D2199
:100DAC00D96F6D0EDA6F000EDB6F5CEC01F0000E8C
:100DBC00006E0201D41908E10050D31905E1FF0EB1
:100DCC00D21902E1D151FF0AD8B4A2D0D1C200F09D
:100DDC00D2C201F0D3C202F0D4C203F000360090AC
:100DEC0001360236033600C0D1F201C0D2F202C085
:100DFC00D3F203C0D4F267C004F068C005F0000E53
:100E0C00066E076E6DDC00C07CF201C07DF267C01F
:100E1C0004F068C005F0000E066E076ED1C200F03B
:100E2C00D2C201F0D3C202F0D4C203F059DC08C024
:100E3C0000F009C001F00AC002F00BC003F000C0C2
:100E4C007AF201C07BF27C51A225D66F7D51A32191
:100E5C00D76F000EA421D86F000EA521D96F6D0E8F
:100E6C00DA6F000EDB6FD8EC00F06D0E02017A2504
:100E7C00026E000E7B21036E02C0E9FF03C0EAFF85
:100E8C00EECFD1F2010E7A25006E000E7B21016EA1
:100E9C006D0E0024E96E000E0120EA6EEECFD2F248
:100EAC0002C0E1FF03C0E2FFE66A010E7A25006E84
:100EBC00000E7B21016E6D0E0024E16E000E0120F0
:100ECC00E26EE66A7C51A225D66F7D51A321D76FC5
:100EDC00000EA421D86F000EA521D96F6D0EDA6F0C
:100EEC00000EDB6F5CEC01F002017C519A25D66F91
:100EFC007D519B21D76F000E9C21D86F000E9D2138
:100F0C00D96F6D0EDA6F000EDB6F5CEC01F04FD712
:100F1C0087C27CF288C27DF291C27AF292C27BF2D5
:020F2C001200B1
:100F2E000201D16BD26B270ED25D02E1100ED15DA4
:100F3E00D8B0AAD0000E000A02E1000ED01918E1B6
:100F4E0030EC00F0010EE46FE56BE66BE76BE86BDF
:100F5E00FF0EE96F32EC00F000C0D3F223EC00F08C
:100F6E000201D351000A03E1466A006A120089D0D9
:100F7E0030EC00F0370EE46FE56BE66BE76BE86B79
:100F8E00FF0EE96F32EC00F000C0D3F223EC00F05C
:100F9E000201D351010AD8A473D030EC00F0290E0F
:100FAE00E46F000EE56F000EE66F000EE76F400E69
:100FBE00E86FFF0EE96F32EC00F000C0D3F223ECC5
:100FCE0000F00201D351000A5AE1000E000A02E1BC
:100FDE00020ED01950E130EC00F03A0EE46FE56BE2
:100FEE00E66BE76BE86BFF0EE96F32EC00F000C0CA
:100FFE00D3F276C2E1FF77C2E2FFFF0EE66E74C255
:10100E0000F075C201F017EC00F000C0D4F276C209
:10101E00E1FF77C2E2FFFF0EE66E74C200F075C20A
:10102E0001F017EC00F076C2E1FF77C2E2FFFF0E8F
:10103E00E66E74C200F075C201F017EC00F076C2D5
:10104E00E1FF77C2E2FFFF0EE66E74C200F075C2DA
:10105E0001F017EC00F023EC00F00201D351000A6E
:10106E0009E1D4AD03D0040E466E02D0030E466ED7
:10107E00006A120004D0010E466E006A120001D002
:0E108E0003D0D14BD22B4FD7010E006E1200B3
:10109C000450085E0550D8A0053C095E0650D8A047
:1010AC00063C0A5E0750D8A0073C0B5E0336070EC1
:1010BC000C6E0334083609360A360B36045003A07E
:1010CC000ED0085E0550D8A0053C095E0650D8A08D
:1010DC00063C0A5E0750D8A0073C0B5E0DD00826D4
:1010EC000550D8B0053C09260650D8B0063C0A2657
:1010FC000750D8B0073C0B2603360C2EDAD7023437
:10110C00083609360A360B36045003A00ED0085E9A
:10111C000550D8A0053C095E0650D8A0063C0A5ED6
:10112C000750D8A0073C0B5E0DD008260550D8B050
:10113C00053C09260650D8B0063C0A260750D8B004
:10114C00073C0B260236070E0C6E023408360936A5
:10115C000A360B36045002A00ED0085E0550D8A0FB
:10116C00053C095E0650D8A0063C0A5E0750D8A084
:10117C00073C0B5E0DD008260550D8B0053C09265F
:10118C000650D8B0063C0A260750D8B0073C0B26B0
:10119C0002360C2EDAD70134083609360A360B36ED
:1011AC00045002A00ED0085E0550D8A0053C095E84
:1011BC000650D8A0063C0A5E0750D8A0073C0B5E30
:1011CC000DD008260550D8B0053C09260650D8B0DD
:1011DC00063C0A260750D8B0073C0B260136070EF2
:1011EC000C6E0134083609360A360B36045001A051
:1011FC000ED0085E0550D8A0053C095E0650D8A05C
:10120C00063C0A5E0750D8A0073C0B5E0DD00826A2
:10121C000550D8B0053C09260650D8B0063C0A2625
:10122C000750D8B0073C0B2601360C2EDAD7003409
:10123C00083609360A360B36045001A00ED0085E6B
:10124C000550D8A0053C095E0650D8A0063C0A5EA5
:10125C000750D8A0073C0B5E0DD008260550D8B01F
:10126C00053C09260650D8B0063C0A260750D8B0D3
:10127C00073C0B260036070E0C6E00340836093678
:10128C000A360B36045000A00ED0085E0550D8A0CC
:10129C00053C095E0650D8A0063C0A5E0750D8A053
:1012AC00073C0B5E0DD008260550D8B0053C09262E
:1012BC000650D8B0063C0A260750D8B0073C0B267F
:1012CC0000360C2EDAD700B00ED00450082605508C
:1012DC00D8B0053C09260650D8B0063C0A26075063
:0812EC00D8B0073C0B261200EC
:1012F4000C6A0E6A0250D8A493EF09F001C002F000
:1013040000C001F0006A0E860250D8A493EF09F0E1
:1013140001C002F0016A0E960E880250D8B4A5EFFF
:1013240009F00E50035ED8A4D8A0ABEF09F0D89012
:1013340002BEB1EF09F0003601360236032E9AEFF1
:1013440009F0ABEF09F0010E0C6EEAEC02F0B5EF18
:1013540009F0020E0C6EDDEC02F0B5EF09F0040E9C
:081364000C6EF1EC02F0120026
:10136C000B1E0A1E091E081E082AD8B4092AD8B456
:08137C000A2AD8B40B2A120062
:101384000B800BAECEEF09F0026A0AAEFF0E026EBE
:0C139400016E006E0A360232FF0E1200DD
:1013A000ACC205F0ADC206F0000E076E086E05C0B7
:1013B00000F006C001F007C002F008C003F00036DC
:1013C000009001360236033600C0D0F201C0D1F2DF
:1013D00002C0D2F203C0D3F267C004F068C005F0C7
:1013E000000E066E076E76EC03F000C07CF201C0C2
:1013F0007DF267C004F068C005F0000E066E076E4F
:10140000D0C200F0D1C201F0D2C202F0D3C203F0C8
:1014100076EC03F008C000F009C001F00AC002F049
:0E1420000BC003F000C07AF201C07BF2120094
:10142E000B820BAE21EF0AF00368026801680068B8
:08143E000A360232FF0E120013
:101446007CC287F27DC288F27AC291F27BC292F2A6
:10145600F5EC02F048EC02F083EC02F08751A2258D
:10146600D66F8851A321D76F000EA421D86F000E26
:10147600A521D96F6D0EDA6F000EDB6FD8EC00F088
:101486006D0E02019125E16E000E9221E26EACC254
:10149600E6FF010E9125006E000E9221016E6D0E83
:1014A6000024E16E000E0120E26EADC2E6FF875118
:1014B600A225D66F8851A321D76F000EA421D86F1D
:1014C600000EA521D96F6D0EDA6F000EDB6F5CEC96
:1014D60001F0020187519A25D66F88519B21D76F5B
:1014E600000E9C21D86F000E9D21D96F6D0EDA6F0C
:0E14F600000EDB6F5CEC01F050EC03F0120016
:101504000201D0517A0804E3610ED05DD8B0D09BBB
:06151400D0C200F012003D
:08151A000B6A0B86FF0E1200A4
:10152200050E466E949023EC00F00201BA6BBB6B81
:10153200000EBB5D02E10A0EBA5D10E276C2E1FF67
:1015420077C2E2FFFF0EE66E74C200F075C201F0D0
:1015520017EC00F00201BA4BBB2BEAD730EC00F0DB
:10156200E46BE56BE66BE76BE86B950EE96F32ECCB
:1015720000F000C0BCF223EC00F00201BC51010AF1
:1015820003E0010E006E120030EC00F0080EE46F72
:10159200AA0EE56F010EE66F000EE76FE86F870E89
:1015A200E96F32EC00F000C0BCF276C2E1FF77C214
:1015B200E2FFFF0EE66E74C200F075C201F017EC96
:1015C20000F076C2E1FF77C2E2FFFF0EE66E74C260
:1015D20000F075C201F017EC00F076C2E1FF77C2AD
:1015E200E2FFFF0EE66E74C200F075C201F017EC66
:1015F20000F076C2E1FF77C2E2FFFF0EE66E74C230
:1016020000F075C201F017EC00F023EC00F00201CB
:10161200BC51010A08E0010ED06F88DC005202E0E2
:10162200D06B84DC03D0020ED06F80DC000E000A87
:1016320002E1050E461803E1020E006E1200000ED2
:10164200000A02E1040E46181AE030EC00F0100E17
:10165200E46F000EE56F020EE66F000EE76FE86FB3
:10166200FF0EE96F32EC00F000C0BCF223EC00F098
:101672000201BC51000A03E0030E006E1200006A70
:02168200120054
:1016840002016F6B706B716B726BAA6BAB6BAE6BA1
:10169400AF6B7F6B806B816B826BAC6BAD6B966B4E
:1016A400976B986B996B836B846B856B866BA26B62
:1016B400A36BA46BA56B9A6B9B6B9C6B9D6B7C6BF8
:1016C4007D6B876B886B7A6B7B6B916B926B000184
:1016D400676B686B0201946B956B0001656B666BBD
:1016E40002016D6B6E6B786B796B9E6B9F6BA06B5D
:1016F400A16B5F6A7E6B736B936B0001696B6A6BA2
:101704006B6B6C6B0201A86BA96B8F6B906BA66BF8
:08171400A76B896B8A6B1200C0
:10171C000201CC6BCD6BCC51BA25E96E000EBB210E
:10172C00EA6EEE50000A41E0CC51BA25E96E000E8B
:10173C00BB21EA6EEE502E0A02E1CCC2CDF2CC51A6
:10174C00BA25E96E000EBB21EA6EEECFD0F2ECECBE
:10175C0004F0005218E0C00ECE6F020ECF6FCC51C9
:10176C00CE27D8B0CF2BCC51BA25E96E000EBB21B9
:10177C00EA6EEECFD0F2C0DECEC2E1FFCFC2E2FF06
:10178C0000C0E6FF10D0C00EE16E020EE26ECC512E
:10179C00E126D8B0E22ACC51BA25E96E000EBB2165
:1017AC00EA6EEECFE6FFCC2BB6D7C00EE16E020E82
:1017BC00E26ECC51E126D8B0E22AE66ACD5354E071
:1017CC00CDC2CCF2030ECD25016E026A000E0222B0
:1017DC00800E006E800E0218005C02E10150CC5DA0
:1017EC0043E2CC51010F006E016A000E0122C00EC3
:1017FC000024E96E020E0120EA6EEE50000A1CE194
:10180C00020ECD25016E026A000E0222800E021815
:10181C00006E800E005C02E1CC51015C0CE3C00E4A
:10182C00E16E020EE26ECC51E126D8B0E22A200E17
:10183C00E66ECC2BE5D718D0C00EE16E020EE26E30
:10184C00CC51E126D8B0E22ACC51010F006E016ACE
:10185C00000E0122C00E0024E96E020E0120EA6E79
:10186C00EECFE6FFCC2BAED7CC070A0ECC5D2FE229
:10187C00C00EE96E020EEA6ECC51E926D8B0EA2A07
:10188C00EECFCAF2CC07C00EE96E020EEA6ECC5156
:10189C00E926D8B0EA2AEECFC9F2CC07C00EE96E21
:1018AC00020EEA6ECC51E926D8B0EA2AEECFC8F285
:1018BC00CC5107080CE3C00EE16E020EE26ECC5167
:1018CC00E126D8B0E22A200EE66ECC2BF1D7CB6BFA
:1018DC00AE6BAF6BAA6BAB6B6FC2D6F270C2D7F2AA
:1018EC0071C2D8F272C2D9F26D0EDA6F000EDB6FD4
:1018FC00D8EC00F00201BD6BBE6BCD6BAF5100019B
:10190C00681903E167510201AE1917E10201AE6BD0
:10191C00AF6BAA4BAB2BAA516F25D66FAB51702175
:10192C00D76F000E7121D86F000E7221D96F6D0E1A
:10193C00DA6F000EDB6FD8EC00F00201CD6BCC6BD4
:10194C00CC510A081AE3CC51AE25006E000EAF2123
:10195C00016E6D0E0024E96E000E0120EA6EC00EC1
:10196C00D96E020EDA6ECC51D926D8B0DA2AEE50E6
:10197C00DE18D8B4CD2BCC2BE3D7BD4BBE2B6D0EC4
:10198C00AE25E96E000EAF21EA6EEECFBFF2200E4F
:10199C00AE27000EAF23CD510B0A0DE0BE517919C5
:1019AC0002E17851BD1902E11E0ECD6FBF51000A44
:1019BC0002E1190ECD6FCD510A08A0E2140ECD5DD7
:1019CC00D8B0D4D0200EAE5D026E000EAF59036EAF
:1019DC0002C0AEF203C0AFF21A0E0224006E000E6B
:1019EC000320016E6D0E0024E96E000E0120EA6EDC
:1019FC00EECFACF21B0E0224006E000E0320016E23
:101A0C006D0E0024E96E000E0120EA6EEECFADF2F1
:101A1C0050EC03F01C0EAE25006E000EAF21016ED3
:101A2C006D0E0024E96E000E0120EA6EEECF83F2FB
:101A3C001D0EAE25006E000EAF21016E6D0E002442
:101A4C00E96E000E0120EA6EEECF84F21E0EAE257A
:101A5C00006E000EAF21016E6D0E0024E96E000EBB
:101A6C000120EA6EEECF85F21F0EAE25006E000E41
:101A7C00AF21016E6D0E0024E96E000E0120EA6E9E
:101A8C00EECF86F287DC0E0EAE25006E000EAF2177
:101A9C00016E6D0E0024E96E000E0120EA6EEECF91
:101AAC00A6F20F0EAE25006E000EAF21016E6D0E6C
:101ABC000024E96E000E0120EA6EEECFA7F2100EA4
:101ACC00AE25006E000EAF21016E6D0E0024E96E86
:101ADC00000E0120EA6EEECFA8F2110EAE25006EBC
:101AEC00000EAF21016E6D0E0024E96E000E012078
:101AFC00EA6EEECFA9F2160EAE25006E000EAF21E7
:101B0C00016E6D0E0024E96E000E0120EA6EEECF20
:101B1C0089F2170EAE25006E000EAF21016E6D0E10
:101B2C000024E96E000E0120EA6EEECF8AF2180E48
:101B3C00AE25006E000EAF21016E6D0E0024E96E15
:101B4C00000E0120EA6EEECF8FF2190EAE25006E5C
:101B5C00000EAF21016E6D0E0024E96E000E012007
:101B6C00EA6EEECF90F2010E006E1200BCAF0CD0FC
:101B7C00C00ED06F020ED16F7F0EBC15D26FFFEC72
:0C1B8C0004F0010E006E1200006A12004E
:101B98000450000A12E10550000A0FE10650000A3D
:101BA8000CE10750000A09E1FF0E006EFF0E016EFE
:101BB800FF0E026E7F0E036E12000C6A07BE0C2A1F
:101BC8000D6A0B6A0A6A096A086A03500210011052
:101BD8000010D8B485D0035007180E6E0EBE0D1E27
:101BE80007AE0BD0041E051E061E071E042AD8B415
:101BF800052AD8B4062AD8B4072A03AE0BD0001E8B
:101C0800011E021E031E002AD8B4012AD8B4022AD3
:101C1800D8B4032A035007100E6E0EBE1DD04EEC2A
:101C280008F00CBE36D00DAE5BD0001E011E021EA1
:101C3800031E002AD8B4012AD8B4022AD8B4032A29
:101C4800081E091E0A1E0B1E082AD8B4092AD8B471
:101C58000A2AD8B40B2A44D007AE15D003BE0DD03B
:101C680003500B6E02500A6E0150096E0050086E48
:101C7800036A026A016A006AD6D7036A026A016ABD
:101C8800006A002A000C031E021E011E001E0C8E94
:101C9800C6D7082AD8B4092AD8B40A2AD8B40B2A2D
:101CA8000450085CD8A4BFD70550095CD8A4BBD79A
:101CB80006500A5CD8A4B7D707500B5CD8A4B3D792
:101CC8000B6A0A6A096A086A002AD8B4012AD8B4D1
:101CD800022AD8B4032A03AEA6D70E6A0E88FF0CD0
:0E1CE8000E6A0CA002D0B6EC09F0000F12003C
:101CF60010D0800E0201BA6F1AD0C00EBA6F17D07C
:101D0600940EBA6F14D0D40EBA6F11D0800EBA6F7B
:101D16000ED00201BA51010AECE0BA51020AEDE016
:101D2600BA51030AEDE0BA51040AEDE0EFD7BB055C
:101D3600006EBA51002600C0BAF200C0D5F29BEC84
:101D460002F060910201BE6BBE51BC25E96E000E29
:101D5600BD21EA6EEE520DE0BE51BC25E96E000EC5
:101D6600BD21EA6EEECFD0F2F8EC04F00201BE2BF4
:081D7600EBD7000160811200AF
:101D7E00FF0E0201D06F66EC06F002017F6B806BE6
:101D8E00816B826B836B846B856B866B7E6B83EC56
:101D9E0002F050EC03F0AA516F25D66FAB517021B3
:101DAE00D76F000E7121D86F000E7221D96F6D0E94
:101DBE00DA6F000EDB6FD8EC00F01C0E0201AE25C0
:101DCE00006E000EAF21016E6D0E0024E16E000E4E
:101DDE000120E26EE66A1D0EAE25006E000EAF21EA
:101DEE00016E6D0E0024E16E000E0120E26EE66AB9
:101DFE001E0EAE25006E000EAF21016E6D0E00247C
:101E0E00E16E000E0120E26EE66A1F0EAE25006E38
:101E1E00000EAF21016E6D0E0024E16E000E01204A
:101E2E00E26EE66AAA516F25D66FAB517021D76F5D
:101E3E00000E7121D86F000E7221D96F6D0EDA6F00
:0A1E4E00000EDB6F5CEC01F01200E7
:101E580096C2D6F297C2D7F298C2D8F299C2D9F2EE
:101E68006D0E0201DA6F000EDB6FD8EC00F0020194
:101E7800BE6BBF6BBD51BF5D02E1BC51BE5D57E299
:101E88006D0E7F25E16E000E8021E26EBE51BA25EF
:101E9800E96EBF51BB21EA6EEECFE6FF010E7F2748
:101EA800000E802381238223000E006E82190BE12D
:101EB8000050811908E1000168510201801903E10D
:101EC8007F51000167192FE196C2D6F297C2D7F267
:101ED80098C2D8F299C2D9F26D0E0201DA6F000EDB
:101EE800DB6F5CEC01F0010E02019627000E9723D0
:101EF800982399237F6B806B816B826B7E2B7E513D
:101F08005F1803E17E6B23EC0AF096C2D6F297C203
:101F1800D7F298C2D8F299C2D9F26D0EDA6F000ED4
:101F2800DB6FD8EC00F00201BE4BBF2BA3D796C2E3
:101F3800D6F297C2D7F298C2D8F299C2D9F26D0EEA
:101F4800DA6F000EDB6F5CEC01F00201BE518327F3
:101F5800BF518423000E85238623AA516F25D66F8F
:101F6800AB517021D76F000E7121D86F000E72210E
:101F7800D96F6D0EDA6F000EDB6FD8EC00F0120E21
:101F88000201AE25006E000EAF21016E6D0E002419
:101F9800E16E000E0120E26EA8C2E6FF130EAE2528
:101FA800006E000EAF21016E6D0E0024E16E000E72
:101FB8000120E26EA9C2E6FF140EAE25006E000EE7
:101FC800AF21016E6D0E0024E16E000E0120E26E5D
:101FD800E66A150EAE25006E000EAF21016E6D0E7D
:101FE8000024E16E000E0120E26EE66A160EAE25B0
:101FF800006E000EAF21016E6D0E0024E16E000E22
:102008000120E26EA6C2E6FF170EAE25006E000E96
:10201800AF21016E6D0E0024E16E000E0120E26E0C
:10202800A7C2E6FF180EAE25006E000EAF21016EA6
:102038006D0E0024E16E000E0120E26EA8C2E6FFDC
:10204800190EAE25006E000EAF21016E6D0E002434
:10205800E16E000E0120E26EA9C2E6FF1C0EAE255D
:10206800006E000EAF21016E6D0E0024E16E000EB1
:102078000120E26E83C2E6FF1D0EAE25006E000E43
:10208800AF21016E6D0E0024E16E000E0120E26E9C
:1020980084C2E6FF1E0EAE25006E000EAF21016E53
:1020A8006D0E0024E16E000E0120E26E85C2E6FF8F
:1020B8001F0EAE25006E000EAF21016E6D0E0024BE
:1020C800E16E000E0120E26E86C2E6FFAA516F257E
:1020D800D66FAB517021D76F000E7121D86F000EEB
:1020E8007221D96F6D0EDA6F000EDB6F5CEC01F0B8
:0220F8001200D4
:1020FA0000C008F00150006E016A026A036A0B6AA6
:10210A000C6A016A026A036A960E036E0A6A00AED4
:10211A0095EF10F0081E001E082AD8B4002A0A8E6D
:10212A0000C001F008C000F0086A026A7AEC09F0FF
:02213A00120091
:10213C00086A096A000E0762036423EF11F002506B
:10214C0006180A6E075003267E0ED8A0B4EF10F0C6
:10215C00035ED8B028EF11F0B8EF10F0035ED8A0F2
:10216C002DEF11F0028E068E02C00EF001C00BF0A6
:10217C0000C00DF000500402F4CF0CF00150050229
:10218C00F4CF00F0F3CF08F00402F3500C26F45017
:10219C000822000E00220D500502F3500C26F450BC
:1021AC000822000E002202500402F3500826F450BC
:1021BC00002202500502016A000E0122F350002693
:1021CC00F45001220D500602F3500826F450002260
:1021DC00026A000E012202220B500602F350002666
:1021EC00F4500122000E02220E500602F35001267A
:1021FC00F450022202BE0BEF11F008360036013605
:10220C0002360306D8B42DEF11F01EEF11F0D88072
:10221C00800E08640030000E002201220222D8A099
:10222C001EEF11F0023201320032034A28EF11F096
:10223C000AAE029E000E30EF11F0010EEAEC02F035
:10224C0030EF11F0020E17EC0AF030EF11F0040E23
:06225C00DDEC02F01200AF
:102262000B6A0C6A0A6A0350D8B47BEF11F0028E33
:102272008E0E035E03BE43EF11F0D8B443EF11F0AC
:102282007FEF11F0036C080E035CD8A05AEF11F037
:10229200036E013602C001F0026A080E035CD8A088
:1022A2005AEF11F00136016A0350D8A4D89064EFB6
:1022B20011F00350D8B464EF11F0D8900232013219
:1022C200032E5EEF11F00BBC01A071EF11F0D8A04C
:1022D20071EF11F0012AD8B4022A02BE8EEF11F07A
:1022E2000AAE94EF11F0021E011E012AD8B4022A8E
:1022F20094EF11F0026A016A94EF11F00B800BAEB9
:1023020098EF11F0026A0AAE98EF11F0FF0E026E1A
:10231200016E0A36023298EF11F0010E0C6EC2EC19
:1023220009F09AEF11F0000E0C6E9AEF11F0FF0E09
:0C2332000C6E0150006E0250016E120093
:10233E000450000A12E10550000A0FE10650000A8F
:10234E000CE10750000A09E1FF0E006EFF0E016E50
:10235E007F0E026EFF0E036E1200086A096A0750A6
:10236E00D8B44AEF12F00350D8B44FEF12F0025027
:10237E0006180A6E028E068E0E6A02C008F001C0A2
:10238E000CF000C00DF004500D5E0550D8A0053CB9
:10239E000C5E0650D8A0063C085E086A0C6A0D6AF0
:1023AE00D8A0E1EF11F0D89002320132003208329B
:1023BE00010E0E6E0750035ED8A0EEEF11F07E0EEA
:1023CE000E240326D8B054EF12F0F4EF11F07E0E67
:1023DE000E240326D8A059EF12F0180E0B6E0D36F0
:1023EE000C3608360036013602360E360450005EC4
:1023FE000550D8A0053C015E0650D8A0063C025EF2
:10240E0006340E120EA00FEF12F00D801AEF12F01E
:10241E00045000260550D8B0053C01260650D8B011
:10242E00062802260D900B2EF6EF11F040EF12F05B
:10243E00D8900036013602360E360450005E055036
:10244E00D8A0053C015E0650D8A0063C025E0634BC
:10245E000E10010B0D26D8B00C2AD8B4082AD8A419
:10246E0040EF12F008320C320D32032AD8B454EF7A
:10247E0012F00AAE089E0850026E0C50016E0D50FE
:10248E00006E5CEF12F0010E8DEC0AF05CEF12F0B4
:10249E00020EEAEC02F05CEF12F0040E17EC0AF0FA
:0C24AE005CEF12F0080EDDEC02F01200F2
:1024BA00B4C200F0B5C201F01BDE000E046E000EBD
:1024CA00056E7A0E066E870E076E33DE000E046EF8
:1024DA00C00E056E7F0E066E880E076E2BDFBCDE01
:0224EA001200DE
:1024EC001C0E0201746F000E756FED0E766F020EEE
:1024FC00776FFF0E8B6FFF0E8C6FFF0E8D6FFF0EC5
:10250C008E6F949EB451040A02E1938201D093928F
:10251C009380C66AB451C612B651C612B551C712D1
:10252C00B65305E0B751000AD8B4C78C03D0B753E3
:08253C00D8A4C78CC68A120066
:102544000201B86BB96B91EC0AF0B92B005204E0AC
:10255400320EB95D01E2F7D7320EB95D03E3FF0E27
:10256400006E120042EC0BF069C0D6F26AC0D7F2DA
:102574006BC0D8F26CC0D9F26D0EDA6F000EDB6F4F
:10258400D8EC00F002016B51550AD8A466D06C5106
:10259400AA0AD8A462D000016D51E90A09E06D517C
:1025A400EB0A04E16F51900A01E102D0006A02D003
:1025B400010E006E00524EE10201375307E1385319
:1025C40005E1395303E13A5301E109D033C269F01B
:1025D40034C26AF035C26BF036C26CF039D047535E
:1025E40007E1485305E1495303E14A5301E109D0A6
:1025F40043C269F044C26AF045C26BF046C26CF053
:1026040027D0575307E1585305E1595303E15A536F
:1026140001E109D053C269F054C26AF055C26BF0AB
:1026240056C26CF015D0675307E1685305E169534E
:1026340003E16A5301E109D063C269F064C26AF03C
:1026440065C26BF066C26CF003D0010E006E12001E
:10265400B86B03D00201010EB86FB96B0201B85315
:1026640027E169C0D6F26AC0D7F26BC0D8F26CC059
:10267400D9F26D0EDA6F000EDB6FD8EC00F00201B8
:102684006B51550A06E16C51AA0A03E1010EB86FB9
:102694000FD0B951400A03E1010E006E1200B92BAC
:1026A400010E00016927000E6A236B236C23D6D721
:1026B400010E0201B96FB851010AD8A411D179C031
:1026C40068F00001676B78516713000E68137AC0D5
:1026D4005FF07CC066F0656B7B516513000E66137A
:1026E4007DC073F284C001F0006A83510012000EB1
:1026F400011200C06DF201C06EF27DC004F0000E44
:10270400056E20EC02F00050692502016F6F015044
:1027140000016A210201706F000E00016B210201A9
:10272400716F000E00016C210201726F000165518E
:1027340002016F270001665102017023000E71230C
:1027440072237FC001F0006A00017E510012000E66
:10275400011200C078F201C079F200C005F001C096
:1027640006F0000E076E086E050E046E05C000F03C
:1027740006C001F007C002F008C003F0045007E0EF
:1027840000360090013602360336FF0FF8D70001F9
:102794006751002668510122000E02220322010E15
:1027A400005E000E015A025A035A67C004F068C062
:1027B40005F0000E066E076ECCEC0DF00050020121
:1027C4006F259E6F015070219F6F02507121A06F81
:1027D40003507221A16F000165516925006E665195
:1027E4006A21016E000E6B21026E000E6C21036ED5
:1027F40000C0A2F201C0A3F202C0A4F203C0A5F279
:1028040002016D5100249A6F6E5101209B6F000EDE
:1028140002209C6F000E03209D6F67C094F268C075
:1028240095F295339433959F000183518411006E82
:1028340054E081518011006E05E080C0B4F281C083
:10284400B5F208D08DC0B4F28EC0B5F28FC0B6F226
:1028540090C0B7F2B4C200F0B5C201F0B6C202F043
:10286400B7C203F002019E51005E9F51015AA0516C
:10287400025AA151035A5FC004F0000E056E066EA1
:10288400076E76EC03F000C0B4F201C0B5F202C0EA
:10289400B6F203C0B7F2000E035C08E1000E025C5E
:1028A40005E10F0E015C02E1F50E005C04E2020199
:1028B400010EB96F11D00201000EB75D08E1000EE0
:1028C400B65D05E1FF0EB55D02E1F50EB45D02E211
:1028D400B96B02D0010EB96F03D0010E006E120065
:0628E400B9C200F0120071
:0A28EA001D0E0D6E0D2EFED712001C
:1028F400086A096A100E0C6E013408360936045051
:10290400085E0550D8A0053C095ED8B007D0045035
:1029140008260550D8B0053C0926D8900036013663
:062924000C2EEAD71200A0
:10292A0010D0800E0201B46F1AD0C00EB46F17D047
:10293A00940EB46F14D0D40EB46F11D0800EB46F4D
:10294A000ED00201B451010AECE0B451020AEDE0E2
:10295A00B451030AEDE0B451040AEDE0EFD7B5052E
:10296A00006EB451002600C0B4F20001608100C0BC
:10297A00D5F29BEC02F06091B6C2D5F29BEC02F064
:04298A006081120056
:10298E002E0E0201BA6F000EBB6FA00EBC6F8EEC46
:10299E000BF0BFEC0EF0020E0201BA6F010EBB6F10
:1029AE00390EBC6F000EBD6F7BEC0EF0340E476E11
:1029BE00320E486E470E0201BA6F000EBB6F170E35
:0C29CE00BC6F000EBD6F2CEC0FF012006F
:1029DA00939693949398939A939C939E81968194B9
:1029EA00819E819C819A8198A0EC00F0A0EC00F075
:1029FA00A0EC00F0818A818881869BEC00F08196A8
:102A0A00A0EC00F081869BEC00F08196A0EC00F02F
:102A1A0081869BEC00F08196A0EC00F0819881867B
:102A2A009BEC00F08196A0EC00F081869BEC00F014
:102A3A008196819A818E81869BEC00F08196A0EC2A
:102A4A0000F0819E818881869BEC00F081968198B6
:102A5A0081869BEC00F08196A0EC00F081869BECCD
:102A6A0000F08196818881869BEC00F08196A0EC2B
:102A7A0000F0819881869BEC00F08196818E818C92
:102A8A00818A818881869BEC00F08196A0EC00F017
:062A9A0000016081120042
:102AA0000900F5CFE6FF0006FBE10106F9E112009F
:102AB000020E0201B46FB56BB66B010EB76F16DD77
:102AC00041DD0050000A13E10201B46BB56BB66B37
:102AD000010EB76F0BDD010EBA6F010EBB6F3C0E1E
:102AE000BC6F000EBD6F7BEC0EF051DF0BD0010E02
:102AF0000201BA6F010EBB6F150EBC6F000EBD6FE9
:102B00007BEC0EF0150E0B6E4B0E0C6EBE0E0D6EAA
:102B10000D2EFED70C2EFCD70B2EFAD7000012007C
:102B2000C26A070EC012C08EB0C200F0003600901C
:102B3000003600900050C212C280D7DEC282C2A20C
:102B400001D0FDD7C4CF01F0006AC3500012000EBF
:062B50000112C290120008
:102B560061C0B4F262C0B5F2ADDC00C063F001C082
:102B660064F00150225C02E10050215C04E263C083
:102B760021F064C022F020500001645D02E11F5084
:102B8600635D04E263C01FF064C020F0010E020121
:102B9600BA6F020EBB6F230EBC6F000EBD6F7BECCF
:102BA6000EF0E80E046E030E056E63C000F064C0FE
:102BB60001F09DDE00C0B0F2E80E046E030E056E55
:102BC60063C000F064C001F092DE08C000F009C0E6
:102BD60001F0640E046E000E056E89DE00C0B1F2CF
:102BE600640E046E000E056E63C000F064C001F052
:102BF6007EDE08C000F009C001F00A0E046E000E69
:102C0600056E75DE00C0B2F20A0E046E000E056E89
:102C160063C000F064C001F06ADE08C000F009C0BD
:102C260001F000C0B3F2020E0201B46F060EB56FDA
:102C3600300EB025B66F76DE300E0201B125D06FAC
:102C4600F8EC04F02E0E0201D06FF8EC04F0300E12
:102C56000201B225D06FF8EC04F0300E0201B32564
:082C6600D06FF8EC04F012003D
:102C6E008CEC16F0010EC26E0E0EC16EAFDE0C0EA7
:102C7E000201D56F9BEC02F0010E0201D56F9BECA9
:102C8E0002F00FDF010E0201D56F9BEC02F0020184
:102C9E00B06B3FDF00C061F001C062F055DF150E72
:102CAE000B6E4B0E0C6EBE0E0D6E0D2EFED70C2E39
:0C2CBE00FCD70B2EFAD70000EAD7FFD796
:102D180010EE15F04A0E006E010E016ECA0EF66E28
:102D28002C0EF76E000EF86E50EC15F010EE61F0F8
:102D3800040E006E010E016E140EF66E2D0EF76E67
:0A2D4800000EF86E50EC15F01200BA
:0A2CCA005344204572726F7221001E
:022CD400F40109
:022CD6000000FC
:0B2CD800566F6C74696D6574726F00BC
:0B2CE30068656C6C6F2E747874000044
:032CEE004F6B0029
:0A2CF10053442053746172742100F3
:012CFB0000D8
:102CFC0058582048656C6C6F20576F726C64205369
:082D0C004420436172642100C0
:022D14000000BD
:022D16000000BB
:020000040030CA
:0E0000001B0E1F1EFF8381FF0FC00FE00F407D
:00000001FF
