:1000000073EF0AF00000000000EF00F000000000B5
:0A0010000000000000000000F3D71C
:10001C000B820BAE18EF00F00368026801680068F1
:08002C000A360232FF0E120039
:080034000AAE029E000E12004C
:10003C000B840BAE29EF00F0010E036E026A016A0D
:0A004C00006A0A360232FF0E1200AD
:040056000000120094
:0E005A00026A016A006A086A036A000E120058
:0C006800100E0D6E0D2EFED700001200D1
:10007400080E0C6E230E0D6E0D2EFED70C2EFCD723
:02008400120068
:0A008600070E0D6E0D2EFED71200BE
:100090000134083609360450085E0550D8A0053CE6
:1000A000095E003601360F0E0C6E01340836093633
:1000B000045000A006D0085E0550D8A0053C095E9B
:1000C00005D008260550D8B0053C09260036013673
:1000D0000C2EEBD700B006D0045008260550D8B03F
:0800E000053C09260000120096
:1000E8000CB0B6EF00F00CA25CEF01F00E6A000E47
:1000F8000264CDEF00F0F00E0214D8A498EF00F0DF
:10010800023A01380F0B02260138F00B016E003855
:100118000F0B01260038F00B006E08380F0B002675
:100128000838F00B086E0E84D89002BEB1EF00F0CC
:1001380008360036013602360E2A02BEB1EF00F04C
:1001480008360036013602360E2A02BEB1EF00F03C
:1001580008360036013602360E2A0E50036452EF76
:1001680001F0035E0BBC08AE57EF01F0D880800E9B
:1001780008640030000E002201220222D8A057EFA6
:1001880001F0023201320032034A5CEF01F057EF0E
:1001980001F001C002F000C001F008C000F0086AD8
:1001A800000E0E86026404EF01F0F00E0214D8A4CB
:1001B800ECEF00F0023A01380F0B02260138F00B81
:1001C800016E00380F0B01260038F00B006E0E840C
:1001D800D89002BEB1EF00F00036013602360E2A82
:1001E80002BEB1EF00F00036013602360E2A02BE1A
:1001F800B1EF00F00036013602360E2AB1EF00F0FA
:1002080001C002F000C001F0006A000E0E960E88D0
:10021800026431EF01F0F00E0214D8A41CEF01F0D3
:10022800023A01380F0B02260138F00B016E0E84DA
:10023800D89002BEB1EF00F0013602360E2A02BE97
:10024800B1EF00F0013602360E2A02BEB1EF00F01F
:10025800013602360E2AB1EF00F001C002F0016A41
:10026800000E0E86026461EF01F0F00E0214D8A4AD
:1002780040EF01F0023A0E84D89002BEB1EF00F0D0
:1002880002360E2A02BEB1EF00F002360E2A02BE76
:10029800B1EF00F002360E2AB1EF00F0010E0C6E3D
:1002A800C9DE64EF01F0020E0C6EC0DE64EF01F0EF
:1002B800040E0C6EAFDE64EF01F0080E0C6EC9DEA2
:0202C800120022
:1002CA004BBE02D0839E01D0838E4BBC02D0839C4E
:1002DA0001D0838C4BBA02D0839A01D0838A4BB85F
:1002EA0002D0839801D0838834B002D0838401D0AD
:1002FA0083948386ABDE83964BB602D0839E01D06D
:10030A00838E4BB402D0839C01D0838C4BB202D033
:10031A00839A01D0838A4BB002D0839801D0838814
:10032A0034B002D0838401D0839483868FDE83968F
:0C033A0034A002D09ADE01D092DE120046
:10034600086A096A000E0762036428EF02F0025089
:1003560006180A6E075003267E0ED8A0B9EF01F0E4
:10036600035ED8B02CEF02F0BDEF01F0035ED8A01B
:1003760030EF02F0028E068E02C00EF001C00BF0C6
:1003860000C00DF000500402F4CF0CF0015005023D
:10039600F4CF00F0F3CF08F00402F3500C26F4502B
:1003A6000822000E00220D500502F3500C26F450D0
:1003B6000822000E002202500402F3500826F450D0
:1003C600002202500502016A000E0122F3500026A7
:1003D600F45001220D500602F3500826F450002274
:1003E600026A000E012202220B500602F35000267A
:1003F600F4500122000E02220E500602F35001268E
:10040600F450022202BE10EF02F008360036013622
:1004160002360306D8B430EF02F023EF02F0D8809C
:10042600800E08640030000E002201220222D8A0AD
:1004360023EF02F0023201320032034A2CEF02F0BF
:100446000AAE029E000E32EF02F0010E03DE32EF1C
:1004560002F0020EE0DD32EF02F0040EECDD1200D7
:0C046600349047C04BF02EDF34801200B1
:1004720047C004F048C005F004C002F005C003F014
:10048200044A052A49C000F04AC001F0494A4A2AF2
:1004920000C0E9FF01C0EAFF02C0E1FF03C0E2FFC2
:1004A200EECFE6FF02C0E9FF03C0EAFFEE5201E031
:0C04B200E3D747C000F048C001F0120082
:1004BE00086A080E0C6E003408360450085ED8B078
:0E04CE0002D00826D89000360C2EF5D712006A
:1004DC000A6A0350D8A40A800750D8A40A820A508A
:1004EC00D8B4D1EF02F0030AD8B48AEF02F00AB004
:1004FC0085EF02F006AECFEF02F0CDEF02F002AEC8
:10050C00CDEF02F0CFEF02F00250800B0A6E029E8C
:10051C000650800B069E0A18D8B49BEF02F00A50C6
:10052C00D8B4CDEF02F0CFEF02F00750035CD8B493
:10053C00A5EF02F0D8A0C1EF02F0C7EF02F0065011
:10054C00025CD8B4AFEF02F0D8A0C1EF02F0C7EF55
:10055C0002F00550015CD8B4B9EF02F0D8A0C1EF9D
:10056C0002F0C7EF02F00450005CD8B4D1EF02F0F7
:10057C00D8B0C7EF02F00A52D8B4CFEF02F0CDEFEB
:10058C0002F00A52D8B4CDEF02F0CFEF02F0D880CF
:0E059C001200D8901200D880D88412001200ED
:1005AA00C26A070EC012C08E47C000F00036009023
:1005BA00003600900050C212C28060DDC282C2A220
:1005CA0001D0FDD7C4CF01F0006AC3500012000E5B
:0605DA000112C2901200A4
:1005E0000450000A08E10550000A05E1FF0E006E04
:1005F0007F0E016E12000D6A096A086A0150001030
:10060000D8B4000C015005180A6E0ABE0D1E0B6A04
:1006100005AE05D0041E051E042AD8B4052A01AE75
:1006200005D0001E011E002AD8B4012A0150051071
:100630000A6E0ABE10D02CDD0BB020D00DAE000C1F
:10064000001E011E002AD8B4012A081E091E082A0D
:10065000D8B4092A000C05AE0DD001BE07D0015058
:10066000096E0050086E016A006AE8D7016A006AE4
:10067000002A000C011E001E0B2ADDD7082AD8B460
:10068000092A0450085CD8A4D9D70550095CD8A41D
:10069000D5D7096A086A002AD8B4012A01AECED794
:0606A0000000FF0C120037
:1006A6000FD0800E476E19D0C00E476E16D0940E2E
:1006B600476E13D0D40E476E10D0800E476E0DD005
:1006C6004750010AEEE04750020AEEE04750030A9F
:1006D600EEE04750040AEEE0F0D74804006E4750BB
:1006E600002600C047F0348000C04BF0EBDD3490AC
:0A06F60049C04BF0E7DD348012002C
:10070000025006180E6E086A096A0B6A03500764E5
:1007100073EF04F006500A6E068E028E03500B6EC5
:100720000750036E000E0B64C3EF03F00B50075E1F
:10073000D8B464EF04F0070E076432EF04F0075EEC
:1007400000C008F001C000F002C001F0026A074ECC
:1007500064EF04F0076407EF04F0075E00C008F0E0
:1007600001C000F0016A074E64EF04F00764E5EF92
:1007700003F0075E00C008F0006A074E64EF04F063
:100780000764CCEF03F00AC002F005C001F004C01A
:1007900000F0086A90EF05F0030E0764D7EF03F04E
:1007A000075E08380F0B086E074E64EF04F0D89010
:1007B0000832074E64EF04F0D8900832074E64EF19
:1007C00004F0D890083264EF04F0030E0764F6EFEB
:1007D00003F0075E08380F0B086E0038F00B082690
:1007E00000380F0B006E074E64EF04F0D890003213
:1007F0000832074E64EF04F0D89000320832074EFA
:1008000064EF04F0D8900032083264EF04F0030E75
:1008100007641EEF04F0075E08380F0B086E0038FF
:10082000F00B082600380F0B006E0138F00B002685
:1008300001380F0B016E074E64EF04F0D8900132BF
:1008400000320832074E64EF04F0D89001320032D3
:100850000832074E64EF04F0D890013200320832BB
:1008600064EF04F0030E07644FEF04F0075E0838EE
:100870000F0B086E0038F00B082600380F0B006EC7
:100880000138F00B002601380F0B016E0238F00B17
:10089000012602380F0B026E074E64EF04F0D89069
:1008A0000232013200320832074E64EF04F0D89071
:1008B0000232013200320832074E64EF04F0D89061
:1008C0000232013200320832096A000E0EAE58EFD1
:1008D00005F0081E001E011E021E082A0022012229
:1008E000022258EF05F00750D8A479EF04F090EFFA
:1008F00005F0096A02C00AF0028E068E0750035CFA
:10090000076ED8B44BEF05F0070E076419EF05F03A
:10091000075E0450096E0550046E0650056E066AA7
:10092000074E4BEF05F0070E0764EEEF04F0075E8D
:100930000450096E0550046E056A074E4BEF05F032
:10094000070E0764CCEF04F0075E0450096E046ADA
:10095000074E4BEF05F0070E0764B3EF04F00AC033
:1009600002F090EF05F0030E0764BEEF04F0075E9F
:1009700009380F0B096E074E4BEF05F0D89009327E
:10098000074E4BEF05F0D8900932074E4BEF05F0BC
:10099000D89009324BEF05F0030E0764DDEF04F049
:1009A000075E09380F0B096E0438F00B092604386E
:1009B0000F0B046E074E4BEF05F0D890043209324E
:1009C000074E4BEF05F0D89004320932074E4BEF3B
:1009D00005F0D890043209324BEF05F0030E07649E
:1009E00005EF05F0075E09380F0B096E0438F00BB0
:1009F000092604380F0B046E0538F00B0426053861
:100A00000F0B056E074E4BEF05F0D8900532043200
:100A10000932074E4BEF05F0D89005320432093207
:100A2000074E4BEF05F0D8900532043209324BEFF8
:100A300005F0030E076436EF05F0075E09380F0B6B
:100A4000096E0438F00B092604380F0B046E0538C4
:100A5000F00B042605380F0B056E0638F00B052643
:100A600006380F0B066E074E4BEF05F0D890063296
:100A7000053204320932074E4BEF05F0D8900632AA
:100A8000053204320932074E4BEF05F0D89006329A
:100A9000053204320932086A000E0EAE58EF05F036
:100AA000091E041E051E061E092A0422052206220E
:100AB0000950082604500022055001220650022247
:100AC0000EBE6FEF05F0D8A07EEF05F002320132C6
:100AD00000320832033E7EEF05F08AEF05F0D8B011
:100AE00084EF05F0000E081E001E011E021E082ADB
:100AF0000022012202220A7E84EF05F0010E0C6E14
:100B000074EC00F092EF05F0020E0C6E74EC00F045
:100B100092EF05F0040E0C6E0EEC00F092EF05F073
:060B2000000E0C6E120035
:080B26000B6A0B86FF0E1200A2
:100B2E000C6A0E6A0250D8A4B0EF05F001C002F0B4
:100B3E0000C001F0006A0E860250D8A4B0EF05F096
:100B4E0001C002F0016A0E960E880250D8B4C2EFB0
:100B5E0005F00E50035ED8A4D8A0C8EF05F0D890CB
:100B6E0002BECEEF05F0003601360236032EB7EF89
:100B7E0005F0C8EF05F0010E0C6E2DEC00F0D2EF73
:100B8E0005F0020E0C6E1EEC00F0D2EF05F0040E16
:080B9E000C6E1AEC00F01200CD
:100BA6003B6A3C6A396A3A6A800E3A18006E800ED1
:100BB600005C02E1640E395C09E2476AF3DC00502E
:100BC6003B2601503C22394A3A2AEED7640E046E7F
:100BD600000E056E3BC000F03CC001F0FEDC1200CA
:100BE600456A466A39C041F03AC042F03BC043F01C
:100BF6003CC044F04450FF0A08E14350FF0A05E1B7
:100C06004250FF0A02E14150FF0A0CE13DC047F0A5
:100C16003EC048F0270E496E000E4A6E27DC030ED2
:100C2600006E1200010E3F6E43AE0ED0800E4318CA
:100C3600006E00C043F03F2A3DC0E1FF3EC0E2FF28
:100C46002D0EE66E3D4A3E2A000E006E441808E15F
:100C56000050431805E10050421802E14150000AD5
:100C66000CE13DC047F03EC048F02B0E496E000E29
:100C76004A6E39EC02F0006A12004450FF0A08E19D
:100C86004350000A05E14250000A02E14150000AC1
:100C96000DE13DC047F03EC048F0230E496E000E00
:100CA6004A6E39EC02F03FC000F01200000E046EEE
:100CB600000E056E000E066E7F0E076E41C000F038
:100CC60042C001F043C002F044C003F004DC010E50
:100CD600D8B0000E006E00521CE041C000F042C0C9
:100CE60001F043C002F044C003F0000E046E000E93
:100CF600056E200E066E820E076EA3EC01F000C094
:100D060041F001C042F002C043F003C044F0460681
:100D1600CDD7000E046E000E056E200E066E820EF6
:100D2600076E41C000F042C001F043C002F044C06B
:100D360003F06EEC02F0000ED8B0010E006E005209
:100D46001CE041C000F042C001F043C002F044C0C4
:100D560003F0CD0E046ECC0E056E4C0E066E7B0EA9
:100D6600076EA3EC01F000C041F001C042F002C0E2
:100D760043F003C044F0462ACCD7FF0E4114086E58
:100D8600FF0E4214096E7F0E43140A6E000E4414C1
:100D96000B6E08C004F009C005F00AC006F00BC0CF
:100DA60007F004360490053606360736000E411461
:100DB600006E000E4214016E000E4314026EFF0E0A
:100DC6004414036E00C041F001C042F002C043F07B
:100DD60003C044F004504110006E05504210016EED
:100DE60006504310026E07504410036E00C041F0D7
:100DF60001C042F002C043F003C044F07F0E445CE1
:100E0600006E00C040F0010E446E00C004F041C008
:100E160000F042C001F043C002F044C003F00450A9
:100E260007E000360090013602360336FF0FF8D78A
:100E360000C041F001C042F002C043F003C044F0DC
:100E46003DC0E1FF3EC0E2FF4450300FE66E3D4A32
:100E56003E2A800E4618006E800E010A005C08E3EA
:100E6600800E060A006E800E4618005C01E30AD06A
:100E76003DC0E1FF3EC0E2FF2E0EE66E3D4A3E2A31
:100E8600010E456E060E406E4050000A54E0446A5C
:100E960041C000F042C001F043C002F044C003F07C
:100EA60000360090013602360336003600900136D1
:100EB6000236033641500026425001224350022298
:100EC6004450032200C041F001C042F002C043F08A
:100ED60003C044F041C000F042C001F043C002F03C
:100EE60044C003F00036009001360236033600C0D7
:100EF60041F001C042F002C043F003C044F03DC0DF
:100F0600E1FF3EC0E2FF4450300FE66E3D4A3E2A06
:100F16004550000A0EE146064650000A0AE13DC069
:100F2600E1FF3EC0E2FF2E0EE66E3D4A3E2A010E6E
:100F3600456E4006A9D7FF0E3D24E96EFF0E3E2002
:100F4600EA6EEE50300A05E1010E3D5E000E3E5A95
:100F5600F2D7FF0E3D24E96EFF0E3E20EA6EEE50FC
:100F66002E0A04E1010E3D5E000E3E5A4650000A6E
:100F76003FE03DC0E1FF3EC0E2FF650EE66E3D4A42
:100F86003E2A800E4618006E800E000A005C0BE2B8
:100F96003DC0E1FF3EC0E2FF2D0EE66E3D4A3E2A11
:100FA60046500008466E46C040F0465009080FE21B
:100FB6000A0E046E40C000F05FEC02F03DC0E1FF97
:100FC6003EC0E2FF0050300FE66E3D4A3E2A0A0E52
:100FD600046E40C000F05FEC02F008C000F03DC0B7
:100FE600E1FF3EC0E2FF0050300FE66E3D4A3E2A6A
:0E0FF6003DC0E1FF3EC0E2FFE66A006A120065
:10100400400E4B6E65EC01F03B6A3B50070812E35F
:101014002C0E3B24F66E150EF76E000EF722000E12
:10102400F86E000EF8220900F5CF47F033EC02F019
:101034003B2AEBD7020E4B6E65EC01F039C047F04A
:0C1044003AC048F0496A53EC03F0120077
:08105000067E80EC03F01200A3
:1010580000C008F00150006E016A026A036A0B6A58
:101068000C6A016A026A036A960E036E0A6A00AE87
:1010780044EF08F0081E001E082AD8B4002A0A8E79
:1010880000C001F008C000F0086A026A4CDD1200D6
:101098000450000A12E10550000A0FE10650000A48
:1010A8000CE10750000A09E1FF0E006EFF0E016E09
:1010B8007F0E026EFF0E036E1200086A096A07505F
:1010C800D8B4F7EF08F00350D8B4FBEF08F002509B
:1010D80006180A6E028E068E0E6A02C008F001C05B
:1010E8000CF000C00DF004500D5E0550D8A0053C72
:1010F8000C5E0650D8A0063C085E086A0C6A0D6AA9
:10110800D8A08EEF08F0D8900232013200320832AF
:10111800010E0E6E0750035ED8A09BEF08F07E0EFE
:101128000E240326D8B000EF09F0A1EF08F07E0ED8
:101138000E240326D8A005EF09F0180E0B6E0D3605
:101148000C3608360036013602360E360450005E7C
:101158000550D8A0053C015E0650D8A0063C025EAA
:1011680006340E120EA0BCEF08F00D80C7EF08F091
:10117800045000260550D8B0053C01260650D8B0CA
:10118800062802260D900B2EA3EF08F0EDEF08F0CD
:10119800D8900036013602360E360450005E0550EF
:1011A800D8A0053C015E0650D8A0063C025E063475
:1011B8000E10010B0D26D8B00C2AD8B4082AD8A4D2
:1011C800EDEF08F008320C320D32032AD8B400EFE4
:1011D80009F00AAE089E0850026E0C50016E0D50C0
:1011E800006E08EF09F0010E9ADC08EF09F0020E14
:1011F8002DEC00F008EF09F0040E0EEC00F008EFFB
:0A12080009F0080E1EEC00F01200C1
:10121200959695949598959A959C959E8396839488
:10122200839E839C839A83983AEC00F03AEC00F018
:101232003AEC00F0838A838883862BEC00F0839655
:101242003AEC00F083862BEC00F083963AEC00F047
:1012520083862BEC00F083963AEC00F08398838629
:101262002BEC00F083963AEC00F083862BEC00F036
:101272008396839A838E83862BEC00F083963AECD6
:1012820000F0839E838883862BEC00F083968398FC
:1012920083862BEC00F083963AEC00F083862BECED
:1012A20000F08396838883862BEC00F083963AECD9
:1012B20000F0839883862BEC00F08396838E838CD8
:1012C200838A838883862BEC00F083963AEC00F0C5
:0412D2003480120052
:1012D6000900F5CFE6FF0006FBE10106F9E1120081
:1012E6005FDC00C01DF001C01EF0B3DE000E046E10
:1012F600000E056E200E066E810E076EA3EC01F041
:10130600000E046E000E056E000E066E890E076E48
:10131600C0DE00C01FF001C020F002C021F003C0F3
:1013260022F0000E046E000E056E480E066E850E47
:10133600076EA3EC01F000C035F001C036F002C024
:1013460037F003C038F035C015F036C016F037C098
:1013560017F038C018F019C000F01AC001F01BC011
:1013660002F01CC003F0000E046E000E056E000EA7
:10137600066E7E0E076E80EC03F035C004F036C0B4
:1013860005F037C006F038C007F06EEC02F0010E2B
:10139600D8B0000E006E00522AE1000E046E000E58
:1013A600056E000E066E7E0E076E19C000F01AC09E
:1013B60001F01BC002F01CC003F047DE00C004F0C1
:1013C60001C005F002C006F003C007F015C000F02A
:1013D60016C001F017C002F018C003F06EEC02F060
:1013E600010ED8B0000E006E005201E13BD015C0D0
:1013F60019F016C01AF017C01BF018C01CF015C063
:1014060039F016C03AF017C03BF018C03CF02D0E6C
:101416003D6E000E3E6EF3EC05F0020E476E040EB6
:10142600486E2DC049F053EC03F02EC047F033EC64
:1014360002F02FC047F033EC02F030C047F033EC37
:1014460002F031C047F033EC02F0020E396E090E9D
:101456003A6ED5DD020E476E0A0E486E430E496E91
:0614660053EC03F012003C
:10146C00010E476E020E486E540E496E53EC03F09B
:10147C00650E476E33EC02F0720E476E33EC02F0E1
:10148C006D0E476E33EC02F06F0E476E33EC02F0CC
:10149C006D0E476E33EC02F0650E476E33EC02F0C6
:1014AC00740E476E33EC02F0720E476E33EC02F0A2
:1014BC006F0E476E33EC02F0200E476E33EC02F0E9
:1014CC00500E476E33EC02F0490E476E33EC02F0CF
:0A14DC00430E476E33EC02F01200DD
:1014E6009AEC0AF0010EC26E0E0EC16EFF0E926EDF
:1014F600030E956E8BDE0C0E4B6E65EC01F0010E45
:0E1506004B6E65EC01F0AFDFEBDEFED7FFD7DA
:1015340010EE15F0180E006E010E016E140EF66E0C
:0E154400150EF76E000EF86E6BEC09F012003B
:0415140000000000D3
:0415180000000000CF
:02151C000000CD
:04151E0000000000C9
:04152200494E4600E8
:041526004E614E00C4
:02152A0030008F
:08152C000705070000000000A4
:020000040030CA
:0D000100011F1EFF8381FF0FC00FE00F40A5
:00000001FF
